{
  "_format": "hh-sol-artifact-1",
  "contractName": "Factory",
  "sourceName": "contracts/Factory_selective_collection.sol",
  "abi": [
    {
      "inputs": [],
      "stateMutability": "nonpayable",
      "type": "constructor"
    },
    {
      "anonymous": false,
      "inputs": [
        {
          "indexed": true,
          "internalType": "address",
          "name": "owner",
          "type": "address"
        },
        {
          "indexed": true,
          "internalType": "address",
          "name": "spender",
          "type": "address"
        },
        {
          "indexed": false,
          "internalType": "uint256",
          "name": "value",
          "type": "uint256"
        }
      ],
      "name": "Approval",
      "type": "event"
    },
    {
      "anonymous": false,
      "inputs": [
        {
          "indexed": true,
          "internalType": "address",
          "name": "from",
          "type": "address"
        },
        {
          "indexed": true,
          "internalType": "address",
          "name": "to",
          "type": "address"
        },
        {
          "indexed": false,
          "internalType": "uint256",
          "name": "value",
          "type": "uint256"
        }
      ],
      "name": "Transfer",
      "type": "event"
    },
    {
      "inputs": [
        {
          "internalType": "address",
          "name": "owner",
          "type": "address"
        },
        {
          "internalType": "address",
          "name": "spender",
          "type": "address"
        }
      ],
      "name": "allowance",
      "outputs": [
        {
          "internalType": "uint256",
          "name": "",
          "type": "uint256"
        }
      ],
      "stateMutability": "view",
      "type": "function"
    },
    {
      "inputs": [
        {
          "internalType": "address",
          "name": "spender",
          "type": "address"
        },
        {
          "internalType": "uint256",
          "name": "amount",
          "type": "uint256"
        }
      ],
      "name": "approve",
      "outputs": [
        {
          "internalType": "bool",
          "name": "",
          "type": "bool"
        }
      ],
      "stateMutability": "nonpayable",
      "type": "function"
    },
    {
      "inputs": [
        {
          "internalType": "address",
          "name": "account",
          "type": "address"
        }
      ],
      "name": "balanceOf",
      "outputs": [
        {
          "internalType": "uint256",
          "name": "",
          "type": "uint256"
        }
      ],
      "stateMutability": "view",
      "type": "function"
    },
    {
      "inputs": [
        {
          "internalType": "address",
          "name": "",
          "type": "address"
        }
      ],
      "name": "collectors",
      "outputs": [
        {
          "internalType": "contract Collector",
          "name": "",
          "type": "address"
        }
      ],
      "stateMutability": "view",
      "type": "function"
    },
    {
      "inputs": [
        {
          "internalType": "uint256",
          "name": "valeu_glass",
          "type": "uint256"
        },
        {
          "internalType": "uint256",
          "name": "value_metal",
          "type": "uint256"
        },
        {
          "internalType": "uint256",
          "name": "value_paper",
          "type": "uint256"
        },
        {
          "internalType": "uint256",
          "name": "value_plastic",
          "type": "uint256"
        }
      ],
      "name": "createCollectorContract",
      "outputs": [],
      "stateMutability": "nonpayable",
      "type": "function"
    },
    {
      "inputs": [],
      "name": "decimals",
      "outputs": [
        {
          "internalType": "uint8",
          "name": "",
          "type": "uint8"
        }
      ],
      "stateMutability": "view",
      "type": "function"
    },
    {
      "inputs": [
        {
          "internalType": "address",
          "name": "spender",
          "type": "address"
        },
        {
          "internalType": "uint256",
          "name": "subtractedValue",
          "type": "uint256"
        }
      ],
      "name": "decreaseAllowance",
      "outputs": [
        {
          "internalType": "bool",
          "name": "",
          "type": "bool"
        }
      ],
      "stateMutability": "nonpayable",
      "type": "function"
    },
    {
      "inputs": [
        {
          "internalType": "address",
          "name": "spender",
          "type": "address"
        },
        {
          "internalType": "uint256",
          "name": "addedValue",
          "type": "uint256"
        }
      ],
      "name": "increaseAllowance",
      "outputs": [
        {
          "internalType": "bool",
          "name": "",
          "type": "bool"
        }
      ],
      "stateMutability": "nonpayable",
      "type": "function"
    },
    {
      "inputs": [
        {
          "internalType": "address",
          "name": "to",
          "type": "address"
        },
        {
          "internalType": "uint256",
          "name": "value",
          "type": "uint256"
        }
      ],
      "name": "mintFromResidue",
      "outputs": [],
      "stateMutability": "nonpayable",
      "type": "function"
    },
    {
      "inputs": [],
      "name": "name",
      "outputs": [
        {
          "internalType": "string",
          "name": "",
          "type": "string"
        }
      ],
      "stateMutability": "view",
      "type": "function"
    },
    {
      "inputs": [],
      "name": "symbol",
      "outputs": [
        {
          "internalType": "string",
          "name": "",
          "type": "string"
        }
      ],
      "stateMutability": "view",
      "type": "function"
    },
    {
      "inputs": [],
      "name": "totalSupply",
      "outputs": [
        {
          "internalType": "uint256",
          "name": "",
          "type": "uint256"
        }
      ],
      "stateMutability": "view",
      "type": "function"
    },
    {
      "inputs": [
        {
          "internalType": "address",
          "name": "to",
          "type": "address"
        },
        {
          "internalType": "uint256",
          "name": "amount",
          "type": "uint256"
        }
      ],
      "name": "transfer",
      "outputs": [
        {
          "internalType": "bool",
          "name": "",
          "type": "bool"
        }
      ],
      "stateMutability": "nonpayable",
      "type": "function"
    },
    {
      "inputs": [
        {
          "internalType": "address",
          "name": "from",
          "type": "address"
        },
        {
          "internalType": "address",
          "name": "to",
          "type": "address"
        },
        {
          "internalType": "uint256",
          "name": "amount",
          "type": "uint256"
        }
      ],
      "name": "transferFrom",
      "outputs": [
        {
          "internalType": "bool",
          "name": "",
          "type": "bool"
        }
      ],
      "stateMutability": "nonpayable",
      "type": "function"
    }
  ],
  "bytecode": "0x60806040523480156200001157600080fd5b506040518060400160405280601481526020017f53656c65637469766520436f6c6c656374696f6e0000000000000000000000008152506040518060400160405280600381526020017f534354000000000000000000000000000000000000000000000000000000000081525081600390816200008f919062000324565b508060049081620000a1919062000324565b5050506200040b565b600081519050919050565b7f4e487b7100000000000000000000000000000000000000000000000000000000600052604160045260246000fd5b7f4e487b7100000000000000000000000000000000000000000000000000000000600052602260045260246000fd5b600060028204905060018216806200012c57607f821691505b602082108103620001425762000141620000e4565b5b50919050565b60008190508160005260206000209050919050565b60006020601f8301049050919050565b600082821b905092915050565b600060088302620001ac7fffffffffffffffffffffffffffffffffffffffffffffffffffffffffffffffff826200016d565b620001b886836200016d565b95508019841693508086168417925050509392505050565b6000819050919050565b6000819050919050565b600062000205620001ff620001f984620001d0565b620001da565b620001d0565b9050919050565b6000819050919050565b6200022183620001e4565b6200023962000230826200020c565b8484546200017a565b825550505050565b600090565b6200025062000241565b6200025d81848462000216565b505050565b5b8181101562000285576200027960008262000246565b60018101905062000263565b5050565b601f821115620002d4576200029e8162000148565b620002a9846200015d565b81016020851015620002b9578190505b620002d1620002c8856200015d565b83018262000262565b50505b505050565b600082821c905092915050565b6000620002f960001984600802620002d9565b1980831691505092915050565b6000620003148383620002e6565b9150826002028217905092915050565b6200032f82620000aa565b67ffffffffffffffff8111156200034b576200034a620000b5565b5b62000357825462000113565b6200036482828562000289565b600060209050601f8311600181146200039c576000841562000387578287015190505b62000393858262000306565b86555062000403565b601f198416620003ac8662000148565b60005b82811015620003d657848901518255600182019150602085019450602081019050620003af565b86831015620003f65784890151620003f2601f891682620002e6565b8355505b6001600288020188555050505b505050505050565b612914806200041b6000396000f3fe60806040523480156200001157600080fd5b5060043610620001005760003560e01c806370a08231116200009957806395d89b41116200006f57806395d89b4114620002b9578063a457c2d714620002db578063a9059cbb1462000311578063dd62ed3e14620003475762000100565b806370a08231146200022d5780638c54d73414620002635780639593b52314620002835762000100565b806323b872dd11620000db57806323b872dd146200017f578063313ce56714620001b55780633805881814620001d75780633950935114620001f75762000100565b806306fdde031462000105578063095ea7b3146200012757806318160ddd146200015d575b600080fd5b6200010f6200037d565b6040516200011e919062001083565b60405180910390f35b6200014560048036038101906200013f91906200114c565b62000417565b604051620001549190620011b0565b60405180910390f35b620001676200043e565b604051620001769190620011de565b60405180910390f35b6200019d6004803603810190620001979190620011fb565b62000448565b604051620001ac9190620011b0565b60405180910390f35b620001bf6200047d565b604051620001ce919062001275565b60405180910390f35b620001f56004803603810190620001ef91906200114c565b62000486565b005b6200021560048036038101906200020f91906200114c565b62000567565b604051620002249190620011b0565b60405180910390f35b6200024b600480360381019062000245919062001292565b620005a6565b6040516200025a9190620011de565b60405180910390f35b6200028160048036038101906200027b9190620012c4565b620005ee565b005b620002a160048036038101906200029b919062001292565b62000783565b604051620002b09190620013a1565b60405180910390f35b620002c3620007b6565b604051620002d2919062001083565b60405180910390f35b620002f96004803603810190620002f391906200114c565b62000850565b604051620003089190620011b0565b60405180910390f35b6200032f60048036038101906200032991906200114c565b620008d0565b6040516200033e9190620011b0565b60405180910390f35b6200036560048036038101906200035f9190620013be565b620008f7565b604051620003749190620011de565b60405180910390f35b6060600380546200038e9062001434565b80601f0160208091040260200160405190810160405280929190818152602001828054620003bc9062001434565b80156200040d5780601f10620003e1576101008083540402835291602001916200040d565b820191906000526020600020905b815481529060010190602001808311620003ef57829003601f168201915b5050505050905090565b600080620004246200097e565b90506200043381858562000986565b600191505092915050565b6000600254905090565b600080620004556200097e565b90506200046485828562000b57565b6200047185858562000beb565b60019150509392505050565b60006012905090565b600073ffffffffffffffffffffffffffffffffffffffff16600560003373ffffffffffffffffffffffffffffffffffffffff1673ffffffffffffffffffffffffffffffffffffffff16815260200190815260200160002060009054906101000a900473ffffffffffffffffffffffffffffffffffffffff1673ffffffffffffffffffffffffffffffffffffffff160362000557576040517f08c379a00000000000000000000000000000000000000000000000000000000081526004016200054e90620014df565b60405180910390fd5b62000563828262000e70565b5050565b600080620005746200097e565b90506200059b818585620005898589620008f7565b62000595919062001530565b62000986565b600191505092915050565b60008060008373ffffffffffffffffffffffffffffffffffffffff1673ffffffffffffffffffffffffffffffffffffffff168152602001908152602001600020549050919050565b600073ffffffffffffffffffffffffffffffffffffffff16600560003373ffffffffffffffffffffffffffffffffffffffff1673ffffffffffffffffffffffffffffffffffffffff16815260200190815260200160002060009054906101000a900473ffffffffffffffffffffffffffffffffffffffff1673ffffffffffffffffffffffffffffffffffffffff1614620006bf576040517f08c379a0000000000000000000000000000000000000000000000000000000008152600401620006b690620015bb565b60405180910390fd5b3384848484604051620006d29062000fdb565b620006e2959493929190620015ee565b604051809103906000f080158015620006ff573d6000803e3d6000fd5b50600560003373ffffffffffffffffffffffffffffffffffffffff1673ffffffffffffffffffffffffffffffffffffffff16815260200190815260200160002060006101000a81548173ffffffffffffffffffffffffffffffffffffffff021916908373ffffffffffffffffffffffffffffffffffffffff16021790555050505050565b60056020528060005260406000206000915054906101000a900473ffffffffffffffffffffffffffffffffffffffff1681565b606060048054620007c79062001434565b80601f0160208091040260200160405190810160405280929190818152602001828054620007f59062001434565b8015620008465780601f106200081a5761010080835404028352916020019162000846565b820191906000526020600020905b8154815290600101906020018083116200082857829003601f168201915b5050505050905090565b6000806200085d6200097e565b905060006200086d8286620008f7565b905083811015620008b5576040517f08c379a0000000000000000000000000000000000000000000000000000000008152600401620008ac90620016c1565b60405180910390fd5b620008c4828686840362000986565b60019250505092915050565b600080620008dd6200097e565b9050620008ec81858562000beb565b600191505092915050565b6000600160008473ffffffffffffffffffffffffffffffffffffffff1673ffffffffffffffffffffffffffffffffffffffff16815260200190815260200160002060008373ffffffffffffffffffffffffffffffffffffffff1673ffffffffffffffffffffffffffffffffffffffff16815260200190815260200160002054905092915050565b600033905090565b600073ffffffffffffffffffffffffffffffffffffffff168373ffffffffffffffffffffffffffffffffffffffff1603620009f8576040517f08c379a0000000000000000000000000000000000000000000000000000000008152600401620009ef9062001759565b60405180910390fd5b600073ffffffffffffffffffffffffffffffffffffffff168273ffffffffffffffffffffffffffffffffffffffff160362000a6a576040517f08c379a000000000000000000000000000000000000000000000000000000000815260040162000a6190620017f1565b60405180910390fd5b80600160008573ffffffffffffffffffffffffffffffffffffffff1673ffffffffffffffffffffffffffffffffffffffff16815260200190815260200160002060008473ffffffffffffffffffffffffffffffffffffffff1673ffffffffffffffffffffffffffffffffffffffff168152602001908152602001600020819055508173ffffffffffffffffffffffffffffffffffffffff168373ffffffffffffffffffffffffffffffffffffffff167f8c5be1e5ebec7d5bd14f71427d1e84f3dd0314c0f7b2291e5b200ac8c7c3b9258360405162000b4a9190620011de565b60405180910390a3505050565b600062000b658484620008f7565b90507fffffffffffffffffffffffffffffffffffffffffffffffffffffffffffffffff811462000be5578181101562000bd5576040517f08c379a000000000000000000000000000000000000000000000000000000000815260040162000bcc9062001863565b60405180910390fd5b62000be4848484840362000986565b5b50505050565b600073ffffffffffffffffffffffffffffffffffffffff168373ffffffffffffffffffffffffffffffffffffffff160362000c5d576040517f08c379a000000000000000000000000000000000000000000000000000000000815260040162000c5490620018fb565b60405180910390fd5b600073ffffffffffffffffffffffffffffffffffffffff168273ffffffffffffffffffffffffffffffffffffffff160362000ccf576040517f08c379a000000000000000000000000000000000000000000000000000000000815260040162000cc69062001993565b60405180910390fd5b62000cdc83838362000fd1565b60008060008573ffffffffffffffffffffffffffffffffffffffff1673ffffffffffffffffffffffffffffffffffffffff1681526020019081526020016000205490508181101562000d65576040517f08c379a000000000000000000000000000000000000000000000000000000000815260040162000d5c9062001a2b565b60405180910390fd5b8181036000808673ffffffffffffffffffffffffffffffffffffffff1673ffffffffffffffffffffffffffffffffffffffff16815260200190815260200160002081905550816000808573ffffffffffffffffffffffffffffffffffffffff1673ffffffffffffffffffffffffffffffffffffffff168152602001908152602001600020600082825401925050819055508273ffffffffffffffffffffffffffffffffffffffff168473ffffffffffffffffffffffffffffffffffffffff167fddf252ad1be2c89b69c2b068fc378daa952ba7f163c4a11628f55a4df523b3ef8460405162000e559190620011de565b60405180910390a362000e6a84848462000fd6565b50505050565b600073ffffffffffffffffffffffffffffffffffffffff168273ffffffffffffffffffffffffffffffffffffffff160362000ee2576040517f08c379a000000000000000000000000000000000000000000000000000000000815260040162000ed99062001a9d565b60405180910390fd5b62000ef06000838362000fd1565b806002600082825462000f04919062001530565b92505081905550806000808473ffffffffffffffffffffffffffffffffffffffff1673ffffffffffffffffffffffffffffffffffffffff168152602001908152602001600020600082825401925050819055508173ffffffffffffffffffffffffffffffffffffffff16600073ffffffffffffffffffffffffffffffffffffffff167fddf252ad1be2c89b69c2b068fc378daa952ba7f163c4a11628f55a4df523b3ef8360405162000fb79190620011de565b60405180910390a362000fcd6000838362000fd6565b5050565b505050565b505050565b610e1f8062001ac083390190565b600081519050919050565b600082825260208201905092915050565b60005b838110156200102557808201518184015260208101905062001008565b60008484015250505050565b6000601f19601f8301169050919050565b60006200104f8262000fe9565b6200105b818562000ff4565b93506200106d81856020860162001005565b620010788162001031565b840191505092915050565b600060208201905081810360008301526200109f818462001042565b905092915050565b600080fd5b600073ffffffffffffffffffffffffffffffffffffffff82169050919050565b6000620010d982620010ac565b9050919050565b620010eb81620010cc565b8114620010f757600080fd5b50565b6000813590506200110b81620010e0565b92915050565b6000819050919050565b620011268162001111565b81146200113257600080fd5b50565b60008135905062001146816200111b565b92915050565b60008060408385031215620011665762001165620010a7565b5b60006200117685828601620010fa565b9250506020620011898582860162001135565b9150509250929050565b60008115159050919050565b620011aa8162001193565b82525050565b6000602082019050620011c760008301846200119f565b92915050565b620011d88162001111565b82525050565b6000602082019050620011f56000830184620011cd565b92915050565b600080600060608486031215620012175762001216620010a7565b5b60006200122786828701620010fa565b93505060206200123a86828701620010fa565b92505060406200124d8682870162001135565b9150509250925092565b600060ff82169050919050565b6200126f8162001257565b82525050565b60006020820190506200128c600083018462001264565b92915050565b600060208284031215620012ab57620012aa620010a7565b5b6000620012bb84828501620010fa565b91505092915050565b60008060008060808587031215620012e157620012e0620010a7565b5b6000620012f18782880162001135565b9450506020620013048782880162001135565b9350506040620013178782880162001135565b92505060606200132a8782880162001135565b91505092959194509250565b6000819050919050565b6000620013616200135b6200135584620010ac565b62001336565b620010ac565b9050919050565b6000620013758262001340565b9050919050565b6000620013898262001368565b9050919050565b6200139b816200137c565b82525050565b6000602082019050620013b8600083018462001390565b92915050565b60008060408385031215620013d857620013d7620010a7565b5b6000620013e885828601620010fa565b9250506020620013fb85828601620010fa565b9150509250929050565b7f4e487b7100000000000000000000000000000000000000000000000000000000600052602260045260246000fd5b600060028204905060018216806200144d57607f821691505b60208210810362001463576200146262001405565b5b50919050565b7f4f6e6c792074686520636f6c6c6563746f722063616e2063616c6c207468697360008201527f2066756e6374696f6e2e00000000000000000000000000000000000000000000602082015250565b6000620014c7602a8362000ff4565b9150620014d48262001469565b604082019050919050565b60006020820190508181036000830152620014fa81620014b8565b9050919050565b7f4e487b7100000000000000000000000000000000000000000000000000000000600052601160045260246000fd5b60006200153d8262001111565b91506200154a8362001111565b925082820190508082111562001565576200156462001501565b5b92915050565b7f596f7527726520616c7265616479206120636f6c6c6563746f72000000000000600082015250565b6000620015a3601a8362000ff4565b9150620015b0826200156b565b602082019050919050565b60006020820190508181036000830152620015d68162001594565b9050919050565b620015e881620010cc565b82525050565b600060a082019050620016056000830188620015dd565b620016146020830187620011cd565b620016236040830186620011cd565b620016326060830185620011cd565b620016416080830184620011cd565b9695505050505050565b7f45524332303a2064656372656173656420616c6c6f77616e63652062656c6f7760008201527f207a65726f000000000000000000000000000000000000000000000000000000602082015250565b6000620016a960258362000ff4565b9150620016b6826200164b565b604082019050919050565b60006020820190508181036000830152620016dc816200169a565b9050919050565b7f45524332303a20617070726f76652066726f6d20746865207a65726f2061646460008201527f7265737300000000000000000000000000000000000000000000000000000000602082015250565b60006200174160248362000ff4565b91506200174e82620016e3565b604082019050919050565b60006020820190508181036000830152620017748162001732565b9050919050565b7f45524332303a20617070726f766520746f20746865207a65726f20616464726560008201527f7373000000000000000000000000000000000000000000000000000000000000602082015250565b6000620017d960228362000ff4565b9150620017e6826200177b565b604082019050919050565b600060208201905081810360008301526200180c81620017ca565b9050919050565b7f45524332303a20696e73756666696369656e7420616c6c6f77616e6365000000600082015250565b60006200184b601d8362000ff4565b9150620018588262001813565b602082019050919050565b600060208201905081810360008301526200187e816200183c565b9050919050565b7f45524332303a207472616e736665722066726f6d20746865207a65726f20616460008201527f6472657373000000000000000000000000000000000000000000000000000000602082015250565b6000620018e360258362000ff4565b9150620018f08262001885565b604082019050919050565b600060208201905081810360008301526200191681620018d4565b9050919050565b7f45524332303a207472616e7366657220746f20746865207a65726f206164647260008201527f6573730000000000000000000000000000000000000000000000000000000000602082015250565b60006200197b60238362000ff4565b915062001988826200191d565b604082019050919050565b60006020820190508181036000830152620019ae816200196c565b9050919050565b7f45524332303a207472616e7366657220616d6f756e742065786365656473206260008201527f616c616e63650000000000000000000000000000000000000000000000000000602082015250565b600062001a1360268362000ff4565b915062001a2082620019b5565b604082019050919050565b6000602082019050818103600083015262001a468162001a04565b9050919050565b7f45524332303a206d696e7420746f20746865207a65726f206164647265737300600082015250565b600062001a85601f8362000ff4565b915062001a928262001a4d565b602082019050919050565b6000602082019050818103600083015262001ab88162001a76565b905091905056fe60806040523480156200001157600080fd5b5060405162000e1f38038062000e1f833981810160405281019062000037919062000184565b846000806101000a81548173ffffffffffffffffffffffffffffffffffffffff021916908373ffffffffffffffffffffffffffffffffffffffff16021790555033600160006101000a81548173ffffffffffffffffffffffffffffffffffffffff021916908373ffffffffffffffffffffffffffffffffffffffff1602179055508360028190555082600381905550816004819055508060058190555050505050506200020c565b600080fd5b600073ffffffffffffffffffffffffffffffffffffffff82169050919050565b60006200011182620000e4565b9050919050565b620001238162000104565b81146200012f57600080fd5b50565b600081519050620001438162000118565b92915050565b6000819050919050565b6200015e8162000149565b81146200016a57600080fd5b50565b6000815190506200017e8162000153565b92915050565b600080600080600060a08688031215620001a357620001a2620000df565b5b6000620001b38882890162000132565b9550506020620001c6888289016200016d565b9450506040620001d9888289016200016d565b9350506060620001ec888289016200016d565b9250506080620001ff888289016200016d565b9150509295509295909350565b610c03806200021c6000396000f3fe608060405234801561001057600080fd5b50600436106100b45760003560e01c8063810523fe11610071578063810523fe146101635780638404504714610181578063920863a41461019d578063c21fa564146101b9578063c9b4e94e146101d7578063f814fd81146101f3576100b4565b8063145589a6146100b95780632be894ed146100d55780635e4590ee146100f35780636d6ece431461010f5780637b4bdba71461012b5780637cb8e1bb14610147575b600080fd5b6100d360048036038101906100ce919061098c565b610211565b005b6100dd6102ab565b6040516100ea91906109c8565b60405180910390f35b61010d6004803603810190610108919061098c565b6102b1565b005b6101296004803603810190610124919061098c565b61034b565b005b61014560048036038101906101409190610a41565b6103e5565b005b610161600480360381019061015c9190610a41565b610515565b005b61016b610645565b60405161017891906109c8565b60405180910390f35b61019b60048036038101906101969190610a41565b61064b565b005b6101b760048036038101906101b29190610a41565b61077b565b005b6101c16108ab565b6040516101ce91906109c8565b60405180910390f35b6101f160048036038101906101ec919061098c565b6108b1565b005b6101fb61094b565b60405161020891906109c8565b60405180910390f35b3360008054906101000a900473ffffffffffffffffffffffffffffffffffffffff1673ffffffffffffffffffffffffffffffffffffffff168173ffffffffffffffffffffffffffffffffffffffff16146102a0576040517f08c379a000000000000000000000000000000000000000000000000000000000815260040161029790610b04565b60405180910390fd5b816002819055505050565b60045481565b3360008054906101000a900473ffffffffffffffffffffffffffffffffffffffff1673ffffffffffffffffffffffffffffffffffffffff168173ffffffffffffffffffffffffffffffffffffffff1614610340576040517f08c379a000000000000000000000000000000000000000000000000000000000815260040161033790610b04565b60405180910390fd5b816003819055505050565b3360008054906101000a900473ffffffffffffffffffffffffffffffffffffffff1673ffffffffffffffffffffffffffffffffffffffff168173ffffffffffffffffffffffffffffffffffffffff16146103da576040517f08c379a00000000000000000000000000000000000000000000000000000000081526004016103d190610b04565b60405180910390fd5b816004819055505050565b3360008054906101000a900473ffffffffffffffffffffffffffffffffffffffff1673ffffffffffffffffffffffffffffffffffffffff168173ffffffffffffffffffffffffffffffffffffffff1614610474576040517f08c379a000000000000000000000000000000000000000000000000000000000815260040161046b90610b04565b60405180910390fd5b600160009054906101000a900473ffffffffffffffffffffffffffffffffffffffff1673ffffffffffffffffffffffffffffffffffffffff16633805881884600354856104c19190610b53565b6040518363ffffffff1660e01b81526004016104de929190610ba4565b600060405180830381600087803b1580156104f857600080fd5b505af115801561050c573d6000803e3d6000fd5b50505050505050565b3360008054906101000a900473ffffffffffffffffffffffffffffffffffffffff1673ffffffffffffffffffffffffffffffffffffffff168173ffffffffffffffffffffffffffffffffffffffff16146105a4576040517f08c379a000000000000000000000000000000000000000000000000000000000815260040161059b90610b04565b60405180910390fd5b600160009054906101000a900473ffffffffffffffffffffffffffffffffffffffff1673ffffffffffffffffffffffffffffffffffffffff16633805881884600554856105f19190610b53565b6040518363ffffffff1660e01b815260040161060e929190610ba4565b600060405180830381600087803b15801561062857600080fd5b505af115801561063c573d6000803e3d6000fd5b50505050505050565b60025481565b3360008054906101000a900473ffffffffffffffffffffffffffffffffffffffff1673ffffffffffffffffffffffffffffffffffffffff168173ffffffffffffffffffffffffffffffffffffffff16146106da576040517f08c379a00000000000000000000000000000000000000000000000000000000081526004016106d190610b04565b60405180910390fd5b600160009054906101000a900473ffffffffffffffffffffffffffffffffffffffff1673ffffffffffffffffffffffffffffffffffffffff16633805881884600254856107279190610b53565b6040518363ffffffff1660e01b8152600401610744929190610ba4565b600060405180830381600087803b15801561075e57600080fd5b505af1158015610772573d6000803e3d6000fd5b50505050505050565b3360008054906101000a900473ffffffffffffffffffffffffffffffffffffffff1673ffffffffffffffffffffffffffffffffffffffff168173ffffffffffffffffffffffffffffffffffffffff161461080a576040517f08c379a000000000000000000000000000000000000000000000000000000000815260040161080190610b04565b60405180910390fd5b600160009054906101000a900473ffffffffffffffffffffffffffffffffffffffff1673ffffffffffffffffffffffffffffffffffffffff16633805881884600454856108579190610b53565b6040518363ffffffff1660e01b8152600401610874929190610ba4565b600060405180830381600087803b15801561088e57600080fd5b505af11580156108a2573d6000803e3d6000fd5b50505050505050565b60035481565b3360008054906101000a900473ffffffffffffffffffffffffffffffffffffffff1673ffffffffffffffffffffffffffffffffffffffff168173ffffffffffffffffffffffffffffffffffffffff1614610940576040517f08c379a000000000000000000000000000000000000000000000000000000000815260040161093790610b04565b60405180910390fd5b816005819055505050565b60055481565b600080fd5b6000819050919050565b61096981610956565b811461097457600080fd5b50565b60008135905061098681610960565b92915050565b6000602082840312156109a2576109a1610951565b5b60006109b084828501610977565b91505092915050565b6109c281610956565b82525050565b60006020820190506109dd60008301846109b9565b92915050565b600073ffffffffffffffffffffffffffffffffffffffff82169050919050565b6000610a0e826109e3565b9050919050565b610a1e81610a03565b8114610a2957600080fd5b50565b600081359050610a3b81610a15565b92915050565b60008060408385031215610a5857610a57610951565b5b6000610a6685828601610a2c565b9250506020610a7785828601610977565b9150509250929050565b600082825260208201905092915050565b7f596f75277265206e6f7420746865206f776e6572206f662074686520636f6e7460008201527f7261637400000000000000000000000000000000000000000000000000000000602082015250565b6000610aee602483610a81565b9150610af982610a92565b604082019050919050565b60006020820190508181036000830152610b1d81610ae1565b9050919050565b7f4e487b7100000000000000000000000000000000000000000000000000000000600052601160045260246000fd5b6000610b5e82610956565b9150610b6983610956565b9250828202610b7781610956565b91508282048414831517610b8e57610b8d610b24565b5b5092915050565b610b9e81610a03565b82525050565b6000604082019050610bb96000830185610b95565b610bc660208301846109b9565b939250505056fea2646970667358221220fa29919a6bd7725d3b92d97003051e57b26ddb3ff65df204061c4c782bccbfd764736f6c63430008110033a2646970667358221220b461577156709fcc8affb4b9b7f7853365907c98646daf1ca4a0844e916b667264736f6c63430008110033",
  "linkReferences": {},
  "deployedLinkReferences": {}
}