{
  "_format": "hh-sol-artifact-1",
  "contractName": "Factory",
  "sourceName": "contracts/Factory_selective_collection.sol",
  "abi": [
    {
      "inputs": [],
      "stateMutability": "nonpayable",
      "type": "constructor"
    },
    {
      "anonymous": false,
      "inputs": [
        {
          "indexed": true,
          "internalType": "address",
          "name": "owner",
          "type": "address"
        },
        {
          "indexed": true,
          "internalType": "address",
          "name": "spender",
          "type": "address"
        },
        {
          "indexed": false,
          "internalType": "uint256",
          "name": "value",
          "type": "uint256"
        }
      ],
      "name": "Approval",
      "type": "event"
    },
    {
      "anonymous": false,
      "inputs": [
        {
          "indexed": true,
          "internalType": "address",
          "name": "from",
          "type": "address"
        },
        {
          "indexed": true,
          "internalType": "address",
          "name": "to",
          "type": "address"
        },
        {
          "indexed": false,
          "internalType": "uint256",
          "name": "value",
          "type": "uint256"
        }
      ],
      "name": "Transfer",
      "type": "event"
    },
    {
      "inputs": [
        {
          "internalType": "address",
          "name": "owner",
          "type": "address"
        },
        {
          "internalType": "address",
          "name": "spender",
          "type": "address"
        }
      ],
      "name": "allowance",
      "outputs": [
        {
          "internalType": "uint256",
          "name": "",
          "type": "uint256"
        }
      ],
      "stateMutability": "view",
      "type": "function"
    },
    {
      "inputs": [
        {
          "internalType": "address",
          "name": "spender",
          "type": "address"
        },
        {
          "internalType": "uint256",
          "name": "amount",
          "type": "uint256"
        }
      ],
      "name": "approve",
      "outputs": [
        {
          "internalType": "bool",
          "name": "",
          "type": "bool"
        }
      ],
      "stateMutability": "nonpayable",
      "type": "function"
    },
    {
      "inputs": [
        {
          "internalType": "address",
          "name": "account",
          "type": "address"
        }
      ],
      "name": "balanceOf",
      "outputs": [
        {
          "internalType": "uint256",
          "name": "",
          "type": "uint256"
        }
      ],
      "stateMutability": "view",
      "type": "function"
    },
    {
      "inputs": [
        {
          "internalType": "address",
          "name": "",
          "type": "address"
        }
      ],
      "name": "collectors",
      "outputs": [
        {
          "internalType": "contract Collector",
          "name": "",
          "type": "address"
        }
      ],
      "stateMutability": "view",
      "type": "function"
    },
    {
      "inputs": [
        {
          "internalType": "uint256",
          "name": "valeu_glass",
          "type": "uint256"
        },
        {
          "internalType": "uint256",
          "name": "value_metal",
          "type": "uint256"
        },
        {
          "internalType": "uint256",
          "name": "value_paper",
          "type": "uint256"
        },
        {
          "internalType": "uint256",
          "name": "value_plastic",
          "type": "uint256"
        }
      ],
      "name": "createCollectorContract",
      "outputs": [],
      "stateMutability": "nonpayable",
      "type": "function"
    },
    {
      "inputs": [],
      "name": "decimals",
      "outputs": [
        {
          "internalType": "uint8",
          "name": "",
          "type": "uint8"
        }
      ],
      "stateMutability": "view",
      "type": "function"
    },
    {
      "inputs": [
        {
          "internalType": "address",
          "name": "spender",
          "type": "address"
        },
        {
          "internalType": "uint256",
          "name": "subtractedValue",
          "type": "uint256"
        }
      ],
      "name": "decreaseAllowance",
      "outputs": [
        {
          "internalType": "bool",
          "name": "",
          "type": "bool"
        }
      ],
      "stateMutability": "nonpayable",
      "type": "function"
    },
    {
      "inputs": [],
      "name": "getCollectorAddress",
      "outputs": [
        {
          "internalType": "address",
          "name": "",
          "type": "address"
        }
      ],
      "stateMutability": "view",
      "type": "function"
    },
    {
      "inputs": [
        {
          "internalType": "address",
          "name": "spender",
          "type": "address"
        },
        {
          "internalType": "uint256",
          "name": "addedValue",
          "type": "uint256"
        }
      ],
      "name": "increaseAllowance",
      "outputs": [
        {
          "internalType": "bool",
          "name": "",
          "type": "bool"
        }
      ],
      "stateMutability": "nonpayable",
      "type": "function"
    },
    {
      "inputs": [
        {
          "internalType": "address",
          "name": "to",
          "type": "address"
        },
        {
          "internalType": "uint256",
          "name": "value",
          "type": "uint256"
        }
      ],
      "name": "mintFromResidue",
      "outputs": [],
      "stateMutability": "nonpayable",
      "type": "function"
    },
    {
      "inputs": [],
      "name": "name",
      "outputs": [
        {
          "internalType": "string",
          "name": "",
          "type": "string"
        }
      ],
      "stateMutability": "view",
      "type": "function"
    },
    {
      "inputs": [],
      "name": "symbol",
      "outputs": [
        {
          "internalType": "string",
          "name": "",
          "type": "string"
        }
      ],
      "stateMutability": "view",
      "type": "function"
    },
    {
      "inputs": [],
      "name": "totalSupply",
      "outputs": [
        {
          "internalType": "uint256",
          "name": "",
          "type": "uint256"
        }
      ],
      "stateMutability": "view",
      "type": "function"
    },
    {
      "inputs": [
        {
          "internalType": "address",
          "name": "to",
          "type": "address"
        },
        {
          "internalType": "uint256",
          "name": "amount",
          "type": "uint256"
        }
      ],
      "name": "transfer",
      "outputs": [
        {
          "internalType": "bool",
          "name": "",
          "type": "bool"
        }
      ],
      "stateMutability": "nonpayable",
      "type": "function"
    },
    {
      "inputs": [
        {
          "internalType": "address",
          "name": "from",
          "type": "address"
        },
        {
          "internalType": "address",
          "name": "to",
          "type": "address"
        },
        {
          "internalType": "uint256",
          "name": "amount",
          "type": "uint256"
        }
      ],
      "name": "transferFrom",
      "outputs": [
        {
          "internalType": "bool",
          "name": "",
          "type": "bool"
        }
      ],
      "stateMutability": "nonpayable",
      "type": "function"
    }
  ],
  "bytecode": "0x60806040523480156200001157600080fd5b506040518060400160405280601481526020017f53656c65637469766520436f6c6c656374696f6e0000000000000000000000008152506040518060400160405280600381526020017f534354000000000000000000000000000000000000000000000000000000000081525081600390816200008f919062000324565b508060049081620000a1919062000324565b5050506200040b565b600081519050919050565b7f4e487b7100000000000000000000000000000000000000000000000000000000600052604160045260246000fd5b7f4e487b7100000000000000000000000000000000000000000000000000000000600052602260045260246000fd5b600060028204905060018216806200012c57607f821691505b602082108103620001425762000141620000e4565b5b50919050565b60008190508160005260206000209050919050565b60006020601f8301049050919050565b600082821b905092915050565b600060088302620001ac7fffffffffffffffffffffffffffffffffffffffffffffffffffffffffffffffff826200016d565b620001b886836200016d565b95508019841693508086168417925050509392505050565b6000819050919050565b6000819050919050565b600062000205620001ff620001f984620001d0565b620001da565b620001d0565b9050919050565b6000819050919050565b6200022183620001e4565b6200023962000230826200020c565b8484546200017a565b825550505050565b600090565b6200025062000241565b6200025d81848462000216565b505050565b5b8181101562000285576200027960008262000246565b60018101905062000263565b5050565b601f821115620002d4576200029e8162000148565b620002a9846200015d565b81016020851015620002b9578190505b620002d1620002c8856200015d565b83018262000262565b50505b505050565b600082821c905092915050565b6000620002f960001984600802620002d9565b1980831691505092915050565b6000620003148383620002e6565b9150826002028217905092915050565b6200032f82620000aa565b67ffffffffffffffff8111156200034b576200034a620000b5565b5b62000357825462000113565b6200036482828562000289565b600060209050601f8311600181146200039c576000841562000387578287015190505b62000393858262000306565b86555062000403565b601f198416620003ac8662000148565b60005b82811015620003d657848901518255600182019150602085019450602081019050620003af565b86831015620003f65784890151620003f2601f891682620002e6565b8355505b6001600288020188555050505b505050505050565b6132b5806200041b6000396000f3fe60806040523480156200001157600080fd5b50600436106200010c5760003560e01c80633950935111620000a557806395d89b41116200006f57806395d89b4114620002e7578063a457c2d71462000309578063a9059cbb146200033f578063dd62ed3e1462000375576200010c565b806339509351146200022557806370a08231146200025b5780638c54d73414620002915780639593b52314620002b1576200010c565b806323b872dd11620000e757806323b872dd146200018b5780632848eeb814620001c1578063313ce56714620001e3578063380588181462000205576200010c565b806306fdde031462000111578063095ea7b3146200013357806318160ddd1462000169575b600080fd5b6200011b620003ab565b6040516200012a919062001118565b60405180910390f35b6200015160048036038101906200014b9190620011e1565b62000445565b60405162000160919062001245565b60405180910390f35b620001736200046c565b60405162000182919062001273565b60405180910390f35b620001a96004803603810190620001a3919062001290565b62000476565b604051620001b8919062001245565b60405180910390f35b620001cb620004ab565b604051620001da9190620012fd565b60405180910390f35b620001ed62000512565b604051620001fc919062001338565b60405180910390f35b6200022360048036038101906200021d9190620011e1565b6200051b565b005b6200024360048036038101906200023d9190620011e1565b620005fc565b60405162000252919062001245565b60405180910390f35b62000279600480360381019062000273919062001355565b6200063b565b60405162000288919062001273565b60405180910390f35b620002af6004803603810190620002a9919062001387565b62000683565b005b620002cf6004803603810190620002c9919062001355565b62000818565b604051620002de919062001464565b60405180910390f35b620002f16200084b565b60405162000300919062001118565b60405180910390f35b620003276004803603810190620003219190620011e1565b620008e5565b60405162000336919062001245565b60405180910390f35b6200035d6004803603810190620003579190620011e1565b62000965565b6040516200036c919062001245565b60405180910390f35b6200039360048036038101906200038d919062001481565b6200098c565b604051620003a2919062001273565b60405180910390f35b606060038054620003bc90620014f7565b80601f0160208091040260200160405190810160405280929190818152602001828054620003ea90620014f7565b80156200043b5780601f106200040f576101008083540402835291602001916200043b565b820191906000526020600020905b8154815290600101906020018083116200041d57829003601f168201915b5050505050905090565b6000806200045262000a13565b90506200046181858562000a1b565b600191505092915050565b6000600254905090565b6000806200048362000a13565b90506200049285828562000bec565b6200049f85858562000c80565b60019150509392505050565b6000600560003373ffffffffffffffffffffffffffffffffffffffff1673ffffffffffffffffffffffffffffffffffffffff16815260200190815260200160002060009054906101000a900473ffffffffffffffffffffffffffffffffffffffff16905090565b60006012905090565b600073ffffffffffffffffffffffffffffffffffffffff16600560003373ffffffffffffffffffffffffffffffffffffffff1673ffffffffffffffffffffffffffffffffffffffff16815260200190815260200160002060009054906101000a900473ffffffffffffffffffffffffffffffffffffffff1673ffffffffffffffffffffffffffffffffffffffff1603620005ec576040517f08c379a0000000000000000000000000000000000000000000000000000000008152600401620005e390620015a2565b60405180910390fd5b620005f8828262000f05565b5050565b6000806200060962000a13565b9050620006308185856200061e85896200098c565b6200062a9190620015f3565b62000a1b565b600191505092915050565b60008060008373ffffffffffffffffffffffffffffffffffffffff1673ffffffffffffffffffffffffffffffffffffffff168152602001908152602001600020549050919050565b600073ffffffffffffffffffffffffffffffffffffffff16600560003373ffffffffffffffffffffffffffffffffffffffff1673ffffffffffffffffffffffffffffffffffffffff16815260200190815260200160002060009054906101000a900473ffffffffffffffffffffffffffffffffffffffff1673ffffffffffffffffffffffffffffffffffffffff161462000754576040517f08c379a00000000000000000000000000000000000000000000000000000000081526004016200074b906200167e565b60405180910390fd5b3384848484604051620007679062001070565b62000777959493929190620016a0565b604051809103906000f08015801562000794573d6000803e3d6000fd5b50600560003373ffffffffffffffffffffffffffffffffffffffff1673ffffffffffffffffffffffffffffffffffffffff16815260200190815260200160002060006101000a81548173ffffffffffffffffffffffffffffffffffffffff021916908373ffffffffffffffffffffffffffffffffffffffff16021790555050505050565b60056020528060005260406000206000915054906101000a900473ffffffffffffffffffffffffffffffffffffffff1681565b6060600480546200085c90620014f7565b80601f01602080910402602001604051908101604052809291908181526020018280546200088a90620014f7565b8015620008db5780601f10620008af57610100808354040283529160200191620008db565b820191906000526020600020905b815481529060010190602001808311620008bd57829003601f168201915b5050505050905090565b600080620008f262000a13565b905060006200090282866200098c565b9050838110156200094a576040517f08c379a0000000000000000000000000000000000000000000000000000000008152600401620009419062001773565b60405180910390fd5b62000959828686840362000a1b565b60019250505092915050565b6000806200097262000a13565b90506200098181858562000c80565b600191505092915050565b6000600160008473ffffffffffffffffffffffffffffffffffffffff1673ffffffffffffffffffffffffffffffffffffffff16815260200190815260200160002060008373ffffffffffffffffffffffffffffffffffffffff1673ffffffffffffffffffffffffffffffffffffffff16815260200190815260200160002054905092915050565b600033905090565b600073ffffffffffffffffffffffffffffffffffffffff168373ffffffffffffffffffffffffffffffffffffffff160362000a8d576040517f08c379a000000000000000000000000000000000000000000000000000000000815260040162000a84906200180b565b60405180910390fd5b600073ffffffffffffffffffffffffffffffffffffffff168273ffffffffffffffffffffffffffffffffffffffff160362000aff576040517f08c379a000000000000000000000000000000000000000000000000000000000815260040162000af690620018a3565b60405180910390fd5b80600160008573ffffffffffffffffffffffffffffffffffffffff1673ffffffffffffffffffffffffffffffffffffffff16815260200190815260200160002060008473ffffffffffffffffffffffffffffffffffffffff1673ffffffffffffffffffffffffffffffffffffffff168152602001908152602001600020819055508173ffffffffffffffffffffffffffffffffffffffff168373ffffffffffffffffffffffffffffffffffffffff167f8c5be1e5ebec7d5bd14f71427d1e84f3dd0314c0f7b2291e5b200ac8c7c3b9258360405162000bdf919062001273565b60405180910390a3505050565b600062000bfa84846200098c565b90507fffffffffffffffffffffffffffffffffffffffffffffffffffffffffffffffff811462000c7a578181101562000c6a576040517f08c379a000000000000000000000000000000000000000000000000000000000815260040162000c619062001915565b60405180910390fd5b62000c79848484840362000a1b565b5b50505050565b600073ffffffffffffffffffffffffffffffffffffffff168373ffffffffffffffffffffffffffffffffffffffff160362000cf2576040517f08c379a000000000000000000000000000000000000000000000000000000000815260040162000ce990620019ad565b60405180910390fd5b600073ffffffffffffffffffffffffffffffffffffffff168273ffffffffffffffffffffffffffffffffffffffff160362000d64576040517f08c379a000000000000000000000000000000000000000000000000000000000815260040162000d5b9062001a45565b60405180910390fd5b62000d7183838362001066565b60008060008573ffffffffffffffffffffffffffffffffffffffff1673ffffffffffffffffffffffffffffffffffffffff1681526020019081526020016000205490508181101562000dfa576040517f08c379a000000000000000000000000000000000000000000000000000000000815260040162000df19062001add565b60405180910390fd5b8181036000808673ffffffffffffffffffffffffffffffffffffffff1673ffffffffffffffffffffffffffffffffffffffff16815260200190815260200160002081905550816000808573ffffffffffffffffffffffffffffffffffffffff1673ffffffffffffffffffffffffffffffffffffffff168152602001908152602001600020600082825401925050819055508273ffffffffffffffffffffffffffffffffffffffff168473ffffffffffffffffffffffffffffffffffffffff167fddf252ad1be2c89b69c2b068fc378daa952ba7f163c4a11628f55a4df523b3ef8460405162000eea919062001273565b60405180910390a362000eff8484846200106b565b50505050565b600073ffffffffffffffffffffffffffffffffffffffff168273ffffffffffffffffffffffffffffffffffffffff160362000f77576040517f08c379a000000000000000000000000000000000000000000000000000000000815260040162000f6e9062001b4f565b60405180910390fd5b62000f856000838362001066565b806002600082825462000f999190620015f3565b92505081905550806000808473ffffffffffffffffffffffffffffffffffffffff1673ffffffffffffffffffffffffffffffffffffffff168152602001908152602001600020600082825401925050819055508173ffffffffffffffffffffffffffffffffffffffff16600073ffffffffffffffffffffffffffffffffffffffff167fddf252ad1be2c89b69c2b068fc378daa952ba7f163c4a11628f55a4df523b3ef836040516200104c919062001273565b60405180910390a362001062600083836200106b565b5050565b505050565b505050565b61170e8062001b7283390190565b600081519050919050565b600082825260208201905092915050565b60005b83811015620010ba5780820151818401526020810190506200109d565b60008484015250505050565b6000601f19601f8301169050919050565b6000620010e4826200107e565b620010f0818562001089565b9350620011028185602086016200109a565b6200110d81620010c6565b840191505092915050565b60006020820190508181036000830152620011348184620010d7565b905092915050565b600080fd5b600073ffffffffffffffffffffffffffffffffffffffff82169050919050565b60006200116e8262001141565b9050919050565b620011808162001161565b81146200118c57600080fd5b50565b600081359050620011a08162001175565b92915050565b6000819050919050565b620011bb81620011a6565b8114620011c757600080fd5b50565b600081359050620011db81620011b0565b92915050565b60008060408385031215620011fb57620011fa6200113c565b5b60006200120b858286016200118f565b92505060206200121e85828601620011ca565b9150509250929050565b60008115159050919050565b6200123f8162001228565b82525050565b60006020820190506200125c600083018462001234565b92915050565b6200126d81620011a6565b82525050565b60006020820190506200128a600083018462001262565b92915050565b600080600060608486031215620012ac57620012ab6200113c565b5b6000620012bc868287016200118f565b9350506020620012cf868287016200118f565b9250506040620012e286828701620011ca565b9150509250925092565b620012f78162001161565b82525050565b6000602082019050620013146000830184620012ec565b92915050565b600060ff82169050919050565b62001332816200131a565b82525050565b60006020820190506200134f600083018462001327565b92915050565b6000602082840312156200136e576200136d6200113c565b5b60006200137e848285016200118f565b91505092915050565b60008060008060808587031215620013a457620013a36200113c565b5b6000620013b487828801620011ca565b9450506020620013c787828801620011ca565b9350506040620013da87828801620011ca565b9250506060620013ed87828801620011ca565b91505092959194509250565b6000819050919050565b6000620014246200141e620014188462001141565b620013f9565b62001141565b9050919050565b6000620014388262001403565b9050919050565b60006200144c826200142b565b9050919050565b6200145e816200143f565b82525050565b60006020820190506200147b600083018462001453565b92915050565b600080604083850312156200149b576200149a6200113c565b5b6000620014ab858286016200118f565b9250506020620014be858286016200118f565b9150509250929050565b7f4e487b7100000000000000000000000000000000000000000000000000000000600052602260045260246000fd5b600060028204905060018216806200151057607f821691505b602082108103620015265762001525620014c8565b5b50919050565b7f4f6e6c792074686520636f6c6c6563746f722063616e2063616c6c207468697360008201527f2066756e6374696f6e2e00000000000000000000000000000000000000000000602082015250565b60006200158a602a8362001089565b915062001597826200152c565b604082019050919050565b60006020820190508181036000830152620015bd816200157b565b9050919050565b7f4e487b7100000000000000000000000000000000000000000000000000000000600052601160045260246000fd5b60006200160082620011a6565b91506200160d83620011a6565b9250828201905080821115620016285762001627620015c4565b5b92915050565b7f596f7527726520616c7265616479206120636f6c6c6563746f72000000000000600082015250565b600062001666601a8362001089565b915062001673826200162e565b602082019050919050565b60006020820190508181036000830152620016998162001657565b9050919050565b600060a082019050620016b76000830188620012ec565b620016c6602083018762001262565b620016d5604083018662001262565b620016e4606083018562001262565b620016f3608083018462001262565b9695505050505050565b7f45524332303a2064656372656173656420616c6c6f77616e63652062656c6f7760008201527f207a65726f000000000000000000000000000000000000000000000000000000602082015250565b60006200175b60258362001089565b91506200176882620016fd565b604082019050919050565b600060208201905081810360008301526200178e816200174c565b9050919050565b7f45524332303a20617070726f76652066726f6d20746865207a65726f2061646460008201527f7265737300000000000000000000000000000000000000000000000000000000602082015250565b6000620017f360248362001089565b9150620018008262001795565b604082019050919050565b600060208201905081810360008301526200182681620017e4565b9050919050565b7f45524332303a20617070726f766520746f20746865207a65726f20616464726560008201527f7373000000000000000000000000000000000000000000000000000000000000602082015250565b60006200188b60228362001089565b915062001898826200182d565b604082019050919050565b60006020820190508181036000830152620018be816200187c565b9050919050565b7f45524332303a20696e73756666696369656e7420616c6c6f77616e6365000000600082015250565b6000620018fd601d8362001089565b91506200190a82620018c5565b602082019050919050565b600060208201905081810360008301526200193081620018ee565b9050919050565b7f45524332303a207472616e736665722066726f6d20746865207a65726f20616460008201527f6472657373000000000000000000000000000000000000000000000000000000602082015250565b60006200199560258362001089565b9150620019a28262001937565b604082019050919050565b60006020820190508181036000830152620019c88162001986565b9050919050565b7f45524332303a207472616e7366657220746f20746865207a65726f206164647260008201527f6573730000000000000000000000000000000000000000000000000000000000602082015250565b600062001a2d60238362001089565b915062001a3a82620019cf565b604082019050919050565b6000602082019050818103600083015262001a608162001a1e565b9050919050565b7f45524332303a207472616e7366657220616d6f756e742065786365656473206260008201527f616c616e63650000000000000000000000000000000000000000000000000000602082015250565b600062001ac560268362001089565b915062001ad28262001a67565b604082019050919050565b6000602082019050818103600083015262001af88162001ab6565b9050919050565b7f45524332303a206d696e7420746f20746865207a65726f206164647265737300600082015250565b600062001b37601f8362001089565b915062001b448262001aff565b602082019050919050565b6000602082019050818103600083015262001b6a8162001b28565b905091905056fe60806040523480156200001157600080fd5b506040516200170e3803806200170e8339818101604052810190620000379190620001a4565b846000806101000a81548173ffffffffffffffffffffffffffffffffffffffff021916908373ffffffffffffffffffffffffffffffffffffffff16021790555033600160006101000a81548173ffffffffffffffffffffffffffffffffffffffff021916908373ffffffffffffffffffffffffffffffffffffffff16021790555083600281905550826003819055508160048190555080600581905550600060068190555060006007819055506000600881905550600060098190555050505050506200022c565b600080fd5b600073ffffffffffffffffffffffffffffffffffffffff82169050919050565b6000620001318262000104565b9050919050565b620001438162000124565b81146200014f57600080fd5b50565b600081519050620001638162000138565b92915050565b6000819050919050565b6200017e8162000169565b81146200018a57600080fd5b50565b6000815190506200019e8162000173565b92915050565b600080600080600060a08688031215620001c357620001c2620000ff565b5b6000620001d38882890162000152565b9550506020620001e6888289016200018d565b9450506040620001f9888289016200018d565b93505060606200020c888289016200018d565b92505060806200021f888289016200018d565b9150509295509295909350565b6114d2806200023c6000396000f3fe608060405234801561001057600080fd5b50600436106101375760003560e01c80637b4bdba7116100b857806395c21fa21161007c57806395c21fa2146102b4578063c21fa564146102d2578063c4a4c711146102f0578063c9b4e94e1461030e578063d71da7f11461032a578063f814fd811461033457610137565b80637b4bdba7146102265780637cb8e1bb14610242578063810523fe1461025e578063840450471461027c578063920863a41461029857610137565b80635ede458b116100ff5780635ede458b146101ba578063632ea00d146101d85780636acd9451146101e25780636d6ece43146102005780636d929af71461021c57610137565b8063145589a61461013c5780632be894ed14610158578063421ce6ab1461017657806356dc795c146101805780635e4590ee1461019e575b600080fd5b61015660048036038101906101519190610fd3565b610352565b005b6101606103ec565b60405161016d919061100f565b60405180910390f35b61017e6103f2565b005b6101886104d3565b604051610195919061100f565b60405180910390f35b6101b860048036038101906101b39190610fd3565b6104d9565b005b6101c2610573565b6040516101cf919061100f565b60405180910390f35b6101e0610579565b005b6101ea61065a565b6040516101f7919061100f565b60405180910390f35b61021a60048036038101906102159190610fd3565b610660565b005b6102246106fa565b005b610240600480360381019061023b9190611088565b6107db565b005b61025c60048036038101906102579190611088565b610964565b005b610266610aed565b604051610273919061100f565b60405180910390f35b61029660048036038101906102919190611088565b610af3565b005b6102b260048036038101906102ad9190611088565b610c7c565b005b6102bc610e05565b6040516102c9919061100f565b60405180910390f35b6102da610e0b565b6040516102e7919061100f565b60405180910390f35b6102f8610e11565b604051610305919061100f565b60405180910390f35b61032860048036038101906103239190610fd3565b610e17565b005b610332610eb1565b005b61033c610f92565b604051610349919061100f565b60405180910390f35b3360008054906101000a900473ffffffffffffffffffffffffffffffffffffffff1673ffffffffffffffffffffffffffffffffffffffff168173ffffffffffffffffffffffffffffffffffffffff16146103e1576040517f08c379a00000000000000000000000000000000000000000000000000000000081526004016103d89061114b565b60405180910390fd5b816002819055505050565b60045481565b3360008054906101000a900473ffffffffffffffffffffffffffffffffffffffff1673ffffffffffffffffffffffffffffffffffffffff168173ffffffffffffffffffffffffffffffffffffffff1614610481576040517f08c379a00000000000000000000000000000000000000000000000000000000081526004016104789061114b565b60405180910390fd5b600754600081116104c7576040517f08c379a00000000000000000000000000000000000000000000000000000000081526004016104be906111b7565b60405180910390fd5b60006007819055505050565b614e2081565b3360008054906101000a900473ffffffffffffffffffffffffffffffffffffffff1673ffffffffffffffffffffffffffffffffffffffff168173ffffffffffffffffffffffffffffffffffffffff1614610568576040517f08c379a000000000000000000000000000000000000000000000000000000000815260040161055f9061114b565b60405180910390fd5b816003819055505050565b60065481565b3360008054906101000a900473ffffffffffffffffffffffffffffffffffffffff1673ffffffffffffffffffffffffffffffffffffffff168173ffffffffffffffffffffffffffffffffffffffff1614610608576040517f08c379a00000000000000000000000000000000000000000000000000000000081526004016105ff9061114b565b60405180910390fd5b6009546000811161064e576040517f08c379a0000000000000000000000000000000000000000000000000000000008152600401610645906111b7565b60405180910390fd5b60006009819055505050565b60095481565b3360008054906101000a900473ffffffffffffffffffffffffffffffffffffffff1673ffffffffffffffffffffffffffffffffffffffff168173ffffffffffffffffffffffffffffffffffffffff16146106ef576040517f08c379a00000000000000000000000000000000000000000000000000000000081526004016106e69061114b565b60405180910390fd5b816004819055505050565b3360008054906101000a900473ffffffffffffffffffffffffffffffffffffffff1673ffffffffffffffffffffffffffffffffffffffff168173ffffffffffffffffffffffffffffffffffffffff1614610789576040517f08c379a00000000000000000000000000000000000000000000000000000000081526004016107809061114b565b60405180910390fd5b600854600081116107cf576040517f08c379a00000000000000000000000000000000000000000000000000000000081526004016107c6906111b7565b60405180910390fd5b60006008819055505050565b3360008054906101000a900473ffffffffffffffffffffffffffffffffffffffff1673ffffffffffffffffffffffffffffffffffffffff168173ffffffffffffffffffffffffffffffffffffffff161461086a576040517f08c379a00000000000000000000000000000000000000000000000000000000081526004016108619061114b565b60405180910390fd5b600160009054906101000a900473ffffffffffffffffffffffffffffffffffffffff1673ffffffffffffffffffffffffffffffffffffffff16633805881884600354856108b79190611206565b6040518363ffffffff1660e01b81526004016108d4929190611257565b600060405180830381600087803b1580156108ee57600080fd5b505af1158015610902573d6000803e3d6000fd5b50505050816007546109149190611280565b600781905550614e206007541061095f577ff488829127a2e8197d353fa383fcb6b5923d9c0eef9eb09051f0f28996a237cb6007546040516109569190611300565b60405180910390a15b505050565b3360008054906101000a900473ffffffffffffffffffffffffffffffffffffffff1673ffffffffffffffffffffffffffffffffffffffff168173ffffffffffffffffffffffffffffffffffffffff16146109f3576040517f08c379a00000000000000000000000000000000000000000000000000000000081526004016109ea9061114b565b60405180910390fd5b600160009054906101000a900473ffffffffffffffffffffffffffffffffffffffff1673ffffffffffffffffffffffffffffffffffffffff1663380588188460055485610a409190611206565b6040518363ffffffff1660e01b8152600401610a5d929190611257565b600060405180830381600087803b158015610a7757600080fd5b505af1158015610a8b573d6000803e3d6000fd5b5050505081600954610a9d9190611280565b600981905550614e2060095410610ae8577ff488829127a2e8197d353fa383fcb6b5923d9c0eef9eb09051f0f28996a237cb600954604051610adf919061137a565b60405180910390a15b505050565b60025481565b3360008054906101000a900473ffffffffffffffffffffffffffffffffffffffff1673ffffffffffffffffffffffffffffffffffffffff168173ffffffffffffffffffffffffffffffffffffffff1614610b82576040517f08c379a0000000000000000000000000000000000000000000000000000000008152600401610b799061114b565b60405180910390fd5b600160009054906101000a900473ffffffffffffffffffffffffffffffffffffffff1673ffffffffffffffffffffffffffffffffffffffff1663380588188460025485610bcf9190611206565b6040518363ffffffff1660e01b8152600401610bec929190611257565b600060405180830381600087803b158015610c0657600080fd5b505af1158015610c1a573d6000803e3d6000fd5b5050505081600654610c2c9190611280565b600681905550614e2060065410610c77577ff488829127a2e8197d353fa383fcb6b5923d9c0eef9eb09051f0f28996a237cb600654604051610c6e91906113f4565b60405180910390a15b505050565b3360008054906101000a900473ffffffffffffffffffffffffffffffffffffffff1673ffffffffffffffffffffffffffffffffffffffff168173ffffffffffffffffffffffffffffffffffffffff1614610d0b576040517f08c379a0000000000000000000000000000000000000000000000000000000008152600401610d029061114b565b60405180910390fd5b600160009054906101000a900473ffffffffffffffffffffffffffffffffffffffff1673ffffffffffffffffffffffffffffffffffffffff1663380588188460045485610d589190611206565b6040518363ffffffff1660e01b8152600401610d75929190611257565b600060405180830381600087803b158015610d8f57600080fd5b505af1158015610da3573d6000803e3d6000fd5b5050505081600854610db59190611280565b600881905550614e2060085410610e00577ff488829127a2e8197d353fa383fcb6b5923d9c0eef9eb09051f0f28996a237cb600854604051610df7919061146e565b60405180910390a15b505050565b60085481565b60035481565b60075481565b3360008054906101000a900473ffffffffffffffffffffffffffffffffffffffff1673ffffffffffffffffffffffffffffffffffffffff168173ffffffffffffffffffffffffffffffffffffffff1614610ea6576040517f08c379a0000000000000000000000000000000000000000000000000000000008152600401610e9d9061114b565b60405180910390fd5b816005819055505050565b3360008054906101000a900473ffffffffffffffffffffffffffffffffffffffff1673ffffffffffffffffffffffffffffffffffffffff168173ffffffffffffffffffffffffffffffffffffffff1614610f40576040517f08c379a0000000000000000000000000000000000000000000000000000000008152600401610f379061114b565b60405180910390fd5b60065460008111610f86576040517f08c379a0000000000000000000000000000000000000000000000000000000008152600401610f7d906111b7565b60405180910390fd5b60006006819055505050565b60055481565b600080fd5b6000819050919050565b610fb081610f9d565b8114610fbb57600080fd5b50565b600081359050610fcd81610fa7565b92915050565b600060208284031215610fe957610fe8610f98565b5b6000610ff784828501610fbe565b91505092915050565b61100981610f9d565b82525050565b60006020820190506110246000830184611000565b92915050565b600073ffffffffffffffffffffffffffffffffffffffff82169050919050565b60006110558261102a565b9050919050565b6110658161104a565b811461107057600080fd5b50565b6000813590506110828161105c565b92915050565b6000806040838503121561109f5761109e610f98565b5b60006110ad85828601611073565b92505060206110be85828601610fbe565b9150509250929050565b600082825260208201905092915050565b7f596f75277265206e6f7420746865206f776e6572206f662074686520636f6e7460008201527f7261637400000000000000000000000000000000000000000000000000000000602082015250565b60006111356024836110c8565b9150611140826110d9565b604082019050919050565b6000602082019050818103600083015261116481611128565b9050919050565b7f53746f7261676520697320656d7074792e000000000000000000000000000000600082015250565b60006111a16011836110c8565b91506111ac8261116b565b602082019050919050565b600060208201905081810360008301526111d081611194565b9050919050565b7f4e487b7100000000000000000000000000000000000000000000000000000000600052601160045260246000fd5b600061121182610f9d565b915061121c83610f9d565b925082820261122a81610f9d565b91508282048414831517611241576112406111d7565b5b5092915050565b6112518161104a565b82525050565b600060408201905061126c6000830185611248565b6112796020830184611000565b9392505050565b600061128b82610f9d565b915061129683610f9d565b92508282019050808211156112ae576112ad6111d7565b5b92915050565b7f6d6574616c000000000000000000000000000000000000000000000000000000600082015250565b60006112ea6005836110c8565b91506112f5826112b4565b602082019050919050565b60006040820190508181036000830152611319816112dd565b90506113286020830184611000565b92915050565b7f706c617374696300000000000000000000000000000000000000000000000000600082015250565b60006113646007836110c8565b915061136f8261132e565b602082019050919050565b6000604082019050818103600083015261139381611357565b90506113a26020830184611000565b92915050565b7f676c617373000000000000000000000000000000000000000000000000000000600082015250565b60006113de6005836110c8565b91506113e9826113a8565b602082019050919050565b6000604082019050818103600083015261140d816113d1565b905061141c6020830184611000565b92915050565b7f7061706572000000000000000000000000000000000000000000000000000000600082015250565b60006114586005836110c8565b915061146382611422565b602082019050919050565b600060408201905081810360008301526114878161144b565b90506114966020830184611000565b9291505056fea2646970667358221220d6cf3402920fcd2023d3a960d293e0d6df97d6c425ca72ded5dbb1de495b91ed64736f6c63430008110033a26469706673582212200b359d668304a2968cd5a947a26a55807e12c8c7d22bfba673ed7adb6d21825664736f6c63430008110033",
  "linkReferences": {},
  "deployedLinkReferences": {}
}