{
  "_format": "hh-sol-artifact-1",
  "contractName": "Factory",
  "sourceName": "contracts/Factory_selective_collection.sol",
  "abi": [
    {
      "inputs": [],
      "stateMutability": "nonpayable",
      "type": "constructor"
    },
    {
      "anonymous": false,
      "inputs": [
        {
          "indexed": true,
          "internalType": "address",
          "name": "owner",
          "type": "address"
        },
        {
          "indexed": true,
          "internalType": "address",
          "name": "spender",
          "type": "address"
        },
        {
          "indexed": false,
          "internalType": "uint256",
          "name": "value",
          "type": "uint256"
        }
      ],
      "name": "Approval",
      "type": "event"
    },
    {
      "anonymous": false,
      "inputs": [
        {
          "indexed": true,
          "internalType": "address",
          "name": "from",
          "type": "address"
        },
        {
          "indexed": true,
          "internalType": "address",
          "name": "to",
          "type": "address"
        },
        {
          "indexed": false,
          "internalType": "uint256",
          "name": "value",
          "type": "uint256"
        }
      ],
      "name": "Transfer",
      "type": "event"
    },
    {
      "inputs": [
        {
          "internalType": "address",
          "name": "owner",
          "type": "address"
        },
        {
          "internalType": "address",
          "name": "spender",
          "type": "address"
        }
      ],
      "name": "allowance",
      "outputs": [
        {
          "internalType": "uint256",
          "name": "",
          "type": "uint256"
        }
      ],
      "stateMutability": "view",
      "type": "function"
    },
    {
      "inputs": [
        {
          "internalType": "address",
          "name": "spender",
          "type": "address"
        },
        {
          "internalType": "uint256",
          "name": "amount",
          "type": "uint256"
        }
      ],
      "name": "approve",
      "outputs": [
        {
          "internalType": "bool",
          "name": "",
          "type": "bool"
        }
      ],
      "stateMutability": "nonpayable",
      "type": "function"
    },
    {
      "inputs": [
        {
          "internalType": "address",
          "name": "account",
          "type": "address"
        }
      ],
      "name": "balanceOf",
      "outputs": [
        {
          "internalType": "uint256",
          "name": "",
          "type": "uint256"
        }
      ],
      "stateMutability": "view",
      "type": "function"
    },
    {
      "inputs": [
        {
          "internalType": "uint256",
          "name": "valeu_glass",
          "type": "uint256"
        },
        {
          "internalType": "uint256",
          "name": "value_metal",
          "type": "uint256"
        },
        {
          "internalType": "uint256",
          "name": "value_paper",
          "type": "uint256"
        },
        {
          "internalType": "uint256",
          "name": "value_plastic",
          "type": "uint256"
        }
      ],
      "name": "changeValues",
      "outputs": [],
      "stateMutability": "nonpayable",
      "type": "function"
    },
    {
      "inputs": [
        {
          "internalType": "uint256",
          "name": "valeu_glass",
          "type": "uint256"
        },
        {
          "internalType": "uint256",
          "name": "value_metal",
          "type": "uint256"
        },
        {
          "internalType": "uint256",
          "name": "value_paper",
          "type": "uint256"
        },
        {
          "internalType": "uint256",
          "name": "value_plastic",
          "type": "uint256"
        }
      ],
      "name": "createResiduesContracts",
      "outputs": [],
      "stateMutability": "nonpayable",
      "type": "function"
    },
    {
      "inputs": [],
      "name": "decimals",
      "outputs": [
        {
          "internalType": "uint8",
          "name": "",
          "type": "uint8"
        }
      ],
      "stateMutability": "view",
      "type": "function"
    },
    {
      "inputs": [
        {
          "internalType": "address",
          "name": "spender",
          "type": "address"
        },
        {
          "internalType": "uint256",
          "name": "subtractedValue",
          "type": "uint256"
        }
      ],
      "name": "decreaseAllowance",
      "outputs": [
        {
          "internalType": "bool",
          "name": "",
          "type": "bool"
        }
      ],
      "stateMutability": "nonpayable",
      "type": "function"
    },
    {
      "inputs": [
        {
          "internalType": "address",
          "name": "",
          "type": "address"
        }
      ],
      "name": "glass",
      "outputs": [
        {
          "internalType": "address",
          "name": "",
          "type": "address"
        }
      ],
      "stateMutability": "view",
      "type": "function"
    },
    {
      "inputs": [
        {
          "internalType": "address",
          "name": "spender",
          "type": "address"
        },
        {
          "internalType": "uint256",
          "name": "addedValue",
          "type": "uint256"
        }
      ],
      "name": "increaseAllowance",
      "outputs": [
        {
          "internalType": "bool",
          "name": "",
          "type": "bool"
        }
      ],
      "stateMutability": "nonpayable",
      "type": "function"
    },
    {
      "inputs": [
        {
          "internalType": "address",
          "name": "",
          "type": "address"
        }
      ],
      "name": "metal",
      "outputs": [
        {
          "internalType": "address",
          "name": "",
          "type": "address"
        }
      ],
      "stateMutability": "view",
      "type": "function"
    },
    {
      "inputs": [],
      "name": "name",
      "outputs": [
        {
          "internalType": "string",
          "name": "",
          "type": "string"
        }
      ],
      "stateMutability": "view",
      "type": "function"
    },
    {
      "inputs": [
        {
          "internalType": "address",
          "name": "",
          "type": "address"
        }
      ],
      "name": "paper",
      "outputs": [
        {
          "internalType": "address",
          "name": "",
          "type": "address"
        }
      ],
      "stateMutability": "view",
      "type": "function"
    },
    {
      "inputs": [
        {
          "internalType": "address",
          "name": "",
          "type": "address"
        }
      ],
      "name": "plastic",
      "outputs": [
        {
          "internalType": "address",
          "name": "",
          "type": "address"
        }
      ],
      "stateMutability": "view",
      "type": "function"
    },
    {
      "inputs": [],
      "name": "symbol",
      "outputs": [
        {
          "internalType": "string",
          "name": "",
          "type": "string"
        }
      ],
      "stateMutability": "view",
      "type": "function"
    },
    {
      "inputs": [],
      "name": "totalSupply",
      "outputs": [
        {
          "internalType": "uint256",
          "name": "",
          "type": "uint256"
        }
      ],
      "stateMutability": "view",
      "type": "function"
    },
    {
      "inputs": [
        {
          "internalType": "address",
          "name": "to",
          "type": "address"
        },
        {
          "internalType": "uint256",
          "name": "amount",
          "type": "uint256"
        }
      ],
      "name": "transfer",
      "outputs": [
        {
          "internalType": "bool",
          "name": "",
          "type": "bool"
        }
      ],
      "stateMutability": "nonpayable",
      "type": "function"
    },
    {
      "inputs": [
        {
          "internalType": "address",
          "name": "from",
          "type": "address"
        },
        {
          "internalType": "address",
          "name": "to",
          "type": "address"
        },
        {
          "internalType": "uint256",
          "name": "amount",
          "type": "uint256"
        }
      ],
      "name": "transferFrom",
      "outputs": [
        {
          "internalType": "bool",
          "name": "",
          "type": "bool"
        }
      ],
      "stateMutability": "nonpayable",
      "type": "function"
    }
  ],
  "bytecode": "0x60806040523480156200001157600080fd5b506040518060400160405280601481526020017f53656c65637469766520436f6c6c656374696f6e0000000000000000000000008152506040518060400160405280600381526020017f534354000000000000000000000000000000000000000000000000000000000081525081600390816200008f919062000324565b508060049081620000a1919062000324565b5050506200040b565b600081519050919050565b7f4e487b7100000000000000000000000000000000000000000000000000000000600052604160045260246000fd5b7f4e487b7100000000000000000000000000000000000000000000000000000000600052602260045260246000fd5b600060028204905060018216806200012c57607f821691505b602082108103620001425762000141620000e4565b5b50919050565b60008190508160005260206000209050919050565b60006020601f8301049050919050565b600082821b905092915050565b600060088302620001ac7fffffffffffffffffffffffffffffffffffffffffffffffffffffffffffffffff826200016d565b620001b886836200016d565b95508019841693508086168417925050509392505050565b6000819050919050565b6000819050919050565b600062000205620001ff620001f984620001d0565b620001da565b620001d0565b9050919050565b6000819050919050565b6200022183620001e4565b6200023962000230826200020c565b8484546200017a565b825550505050565b600090565b6200025062000241565b6200025d81848462000216565b505050565b5b8181101562000285576200027960008262000246565b60018101905062000263565b5050565b601f821115620002d4576200029e8162000148565b620002a9846200015d565b81016020851015620002b9578190505b620002d1620002c8856200015d565b83018262000262565b50505b505050565b600082821c905092915050565b6000620002f960001984600802620002d9565b1980831691505092915050565b6000620003148383620002e6565b9150826002028217905092915050565b6200032f82620000aa565b67ffffffffffffffff8111156200034b576200034a620000b5565b5b62000357825462000113565b6200036482828562000289565b600060209050601f8311600181146200039c576000841562000387578287015190505b62000393858262000306565b86555062000403565b601f198416620003ac8662000148565b60005b82811015620003d657848901518255600182019150602085019450602081019050620003af565b86831015620003f65784890151620003f2601f891682620002e6565b8355505b6001600288020188555050505b505050505050565b612187806200041b6000396000f3fe60806040523480156200001157600080fd5b5060043610620001245760003560e01c80635d16805911620000b157806395d89b41116200007b57806395d89b411462000349578063a457c2d7146200036b578063a9059cbb14620003a1578063dce9d89914620003d7578063dd62ed3e146200040d5762000124565b80635d168059146200029d57806370a0823114620002d357806372033d2514620003095780637d052c7714620003295762000124565b806323b872dd11620000f357806323b872dd14620001d9578063313ce567146200020f5780633950935114620002315780635599aca014620002675762000124565b806306fdde031462000129578063095ea7b3146200014b57806318160ddd146200018157806320159b7814620001a3575b600080fd5b6200013362000443565b6040516200014291906200133e565b60405180910390f35b62000169600480360381019062000163919062001407565b620004dd565b6040516200017891906200146b565b60405180910390f35b6200018b62000504565b6040516200019a919062001499565b60405180910390f35b620001c16004803603810190620001bb9190620014b6565b6200050e565b604051620001d09190620014f9565b60405180910390f35b620001f76004803603810190620001f1919062001516565b62000541565b6040516200020691906200146b565b60405180910390f35b6200021962000576565b60405162000228919062001590565b60405180910390f35b6200024f600480360381019062000249919062001407565b6200057f565b6040516200025e91906200146b565b60405180910390f35b6200028560048036038101906200027f9190620014b6565b620005be565b604051620002949190620014f9565b60405180910390f35b620002bb6004803603810190620002b59190620014b6565b620005f1565b604051620002ca9190620014f9565b60405180910390f35b620002f16004803603810190620002eb9190620014b6565b62000624565b60405162000300919062001499565b60405180910390f35b620003276004803603810190620003219190620015ad565b6200066c565b005b620003476004803603810190620003419190620015ad565b62000b26565b005b6200035362000b2c565b6040516200036291906200133e565b60405180910390f35b62000389600480360381019062000383919062001407565b62000bc6565b6040516200039891906200146b565b60405180910390f35b620003bf6004803603810190620003b9919062001407565b62000c46565b604051620003ce91906200146b565b60405180910390f35b620003f56004803603810190620003ef9190620014b6565b62000c6d565b604051620004049190620014f9565b60405180910390f35b6200042b60048036038101906200042591906200161f565b62000ca0565b6040516200043a919062001499565b60405180910390f35b606060038054620004549062001695565b80601f0160208091040260200160405190810160405280929190818152602001828054620004829062001695565b8015620004d35780601f10620004a757610100808354040283529160200191620004d3565b820191906000526020600020905b815481529060010190602001808311620004b557829003601f168201915b5050505050905090565b600080620004ea62000d27565b9050620004f981858562000d2f565b600191505092915050565b6000600254905090565b60066020528060005260406000206000915054906101000a900473ffffffffffffffffffffffffffffffffffffffff1681565b6000806200054e62000d27565b90506200055d85828562000f00565b6200056a85858562000f94565b60019150509392505050565b60006012905090565b6000806200058c62000d27565b9050620005b3818585620005a1858962000ca0565b620005ad9190620016f9565b62000d2f565b600191505092915050565b60056020528060005260406000206000915054906101000a900473ffffffffffffffffffffffffffffffffffffffff1681565b60086020528060005260406000206000915054906101000a900473ffffffffffffffffffffffffffffffffffffffff1681565b60008060008373ffffffffffffffffffffffffffffffffffffffff1673ffffffffffffffffffffffffffffffffffffffff168152602001908152602001600020549050919050565b6000841462000799573384604051620006859062001296565b6200069292919062001734565b604051809103906000f080158015620006af573d6000803e3d6000fd5b50600560003373ffffffffffffffffffffffffffffffffffffffff1673ffffffffffffffffffffffffffffffffffffffff16815260200190815260200160002060006101000a81548173ffffffffffffffffffffffffffffffffffffffff021916908373ffffffffffffffffffffffffffffffffffffffff16021790555062000798600560003373ffffffffffffffffffffffffffffffffffffffff1673ffffffffffffffffffffffffffffffffffffffff16815260200190815260200160002060009054906101000a900473ffffffffffffffffffffffffffffffffffffffff168562001219565b5b60008314620008c6573383604051620007b29062001296565b620007bf92919062001734565b604051809103906000f080158015620007dc573d6000803e3d6000fd5b50600660003373ffffffffffffffffffffffffffffffffffffffff1673ffffffffffffffffffffffffffffffffffffffff16815260200190815260200160002060006101000a81548173ffffffffffffffffffffffffffffffffffffffff021916908373ffffffffffffffffffffffffffffffffffffffff160217905550620008c5600660003373ffffffffffffffffffffffffffffffffffffffff1673ffffffffffffffffffffffffffffffffffffffff16815260200190815260200160002060009054906101000a900473ffffffffffffffffffffffffffffffffffffffff168462001219565b5b60008214620009f3573382604051620008df9062001296565b620008ec92919062001734565b604051809103906000f08015801562000909573d6000803e3d6000fd5b50600760003373ffffffffffffffffffffffffffffffffffffffff1673ffffffffffffffffffffffffffffffffffffffff16815260200190815260200160002060006101000a81548173ffffffffffffffffffffffffffffffffffffffff021916908373ffffffffffffffffffffffffffffffffffffffff160217905550620009f2600760003373ffffffffffffffffffffffffffffffffffffffff1673ffffffffffffffffffffffffffffffffffffffff16815260200190815260200160002060009054906101000a900473ffffffffffffffffffffffffffffffffffffffff168362001219565b5b6000811462000b2057338160405162000a0c9062001296565b62000a1992919062001734565b604051809103906000f08015801562000a36573d6000803e3d6000fd5b50600860003373ffffffffffffffffffffffffffffffffffffffff1673ffffffffffffffffffffffffffffffffffffffff16815260200190815260200160002060006101000a81548173ffffffffffffffffffffffffffffffffffffffff021916908373ffffffffffffffffffffffffffffffffffffffff16021790555062000b1f600860003373ffffffffffffffffffffffffffffffffffffffff1673ffffffffffffffffffffffffffffffffffffffff16815260200190815260200160002060009054906101000a900473ffffffffffffffffffffffffffffffffffffffff168262001219565b5b50505050565b50505050565b60606004805462000b3d9062001695565b80601f016020809104026020016040519081016040528092919081815260200182805462000b6b9062001695565b801562000bbc5780601f1062000b905761010080835404028352916020019162000bbc565b820191906000526020600020905b81548152906001019060200180831162000b9e57829003601f168201915b5050505050905090565b60008062000bd362000d27565b9050600062000be3828662000ca0565b90508381101562000c2b576040517f08c379a000000000000000000000000000000000000000000000000000000000815260040162000c2290620017d7565b60405180910390fd5b62000c3a828686840362000d2f565b60019250505092915050565b60008062000c5362000d27565b905062000c6281858562000f94565b600191505092915050565b60076020528060005260406000206000915054906101000a900473ffffffffffffffffffffffffffffffffffffffff1681565b6000600160008473ffffffffffffffffffffffffffffffffffffffff1673ffffffffffffffffffffffffffffffffffffffff16815260200190815260200160002060008373ffffffffffffffffffffffffffffffffffffffff1673ffffffffffffffffffffffffffffffffffffffff16815260200190815260200160002054905092915050565b600033905090565b600073ffffffffffffffffffffffffffffffffffffffff168373ffffffffffffffffffffffffffffffffffffffff160362000da1576040517f08c379a000000000000000000000000000000000000000000000000000000000815260040162000d98906200186f565b60405180910390fd5b600073ffffffffffffffffffffffffffffffffffffffff168273ffffffffffffffffffffffffffffffffffffffff160362000e13576040517f08c379a000000000000000000000000000000000000000000000000000000000815260040162000e0a9062001907565b60405180910390fd5b80600160008573ffffffffffffffffffffffffffffffffffffffff1673ffffffffffffffffffffffffffffffffffffffff16815260200190815260200160002060008473ffffffffffffffffffffffffffffffffffffffff1673ffffffffffffffffffffffffffffffffffffffff168152602001908152602001600020819055508173ffffffffffffffffffffffffffffffffffffffff168373ffffffffffffffffffffffffffffffffffffffff167f8c5be1e5ebec7d5bd14f71427d1e84f3dd0314c0f7b2291e5b200ac8c7c3b9258360405162000ef3919062001499565b60405180910390a3505050565b600062000f0e848462000ca0565b90507fffffffffffffffffffffffffffffffffffffffffffffffffffffffffffffffff811462000f8e578181101562000f7e576040517f08c379a000000000000000000000000000000000000000000000000000000000815260040162000f759062001979565b60405180910390fd5b62000f8d848484840362000d2f565b5b50505050565b600073ffffffffffffffffffffffffffffffffffffffff168373ffffffffffffffffffffffffffffffffffffffff160362001006576040517f08c379a000000000000000000000000000000000000000000000000000000000815260040162000ffd9062001a11565b60405180910390fd5b600073ffffffffffffffffffffffffffffffffffffffff168273ffffffffffffffffffffffffffffffffffffffff160362001078576040517f08c379a00000000000000000000000000000000000000000000000000000000081526004016200106f9062001aa9565b60405180910390fd5b620010858383836200128c565b60008060008573ffffffffffffffffffffffffffffffffffffffff1673ffffffffffffffffffffffffffffffffffffffff168152602001908152602001600020549050818110156200110e576040517f08c379a0000000000000000000000000000000000000000000000000000000008152600401620011059062001b41565b60405180910390fd5b8181036000808673ffffffffffffffffffffffffffffffffffffffff1673ffffffffffffffffffffffffffffffffffffffff16815260200190815260200160002081905550816000808573ffffffffffffffffffffffffffffffffffffffff1673ffffffffffffffffffffffffffffffffffffffff168152602001908152602001600020600082825401925050819055508273ffffffffffffffffffffffffffffffffffffffff168473ffffffffffffffffffffffffffffffffffffffff167fddf252ad1be2c89b69c2b068fc378daa952ba7f163c4a11628f55a4df523b3ef84604051620011fe919062001499565b60405180910390a36200121384848462001291565b50505050565b8173ffffffffffffffffffffffffffffffffffffffff1663f965e32e826040518263ffffffff1660e01b815260040162001254919062001499565b600060405180830381600087803b1580156200126f57600080fd5b505af115801562001284573d6000803e3d6000fd5b505050505050565b505050565b505050565b6105ee8062001b6483390190565b600081519050919050565b600082825260208201905092915050565b60005b83811015620012e0578082015181840152602081019050620012c3565b60008484015250505050565b6000601f19601f8301169050919050565b60006200130a82620012a4565b620013168185620012af565b935062001328818560208601620012c0565b6200133381620012ec565b840191505092915050565b600060208201905081810360008301526200135a8184620012fd565b905092915050565b600080fd5b600073ffffffffffffffffffffffffffffffffffffffff82169050919050565b6000620013948262001367565b9050919050565b620013a68162001387565b8114620013b257600080fd5b50565b600081359050620013c6816200139b565b92915050565b6000819050919050565b620013e181620013cc565b8114620013ed57600080fd5b50565b6000813590506200140181620013d6565b92915050565b6000806040838503121562001421576200142062001362565b5b60006200143185828601620013b5565b92505060206200144485828601620013f0565b9150509250929050565b60008115159050919050565b62001465816200144e565b82525050565b60006020820190506200148260008301846200145a565b92915050565b6200149381620013cc565b82525050565b6000602082019050620014b0600083018462001488565b92915050565b600060208284031215620014cf57620014ce62001362565b5b6000620014df84828501620013b5565b91505092915050565b620014f38162001387565b82525050565b6000602082019050620015106000830184620014e8565b92915050565b60008060006060848603121562001532576200153162001362565b5b60006200154286828701620013b5565b93505060206200155586828701620013b5565b92505060406200156886828701620013f0565b9150509250925092565b600060ff82169050919050565b6200158a8162001572565b82525050565b6000602082019050620015a760008301846200157f565b92915050565b60008060008060808587031215620015ca57620015c962001362565b5b6000620015da87828801620013f0565b9450506020620015ed87828801620013f0565b93505060406200160087828801620013f0565b92505060606200161387828801620013f0565b91505092959194509250565b6000806040838503121562001639576200163862001362565b5b60006200164985828601620013b5565b92505060206200165c85828601620013b5565b9150509250929050565b7f4e487b7100000000000000000000000000000000000000000000000000000000600052602260045260246000fd5b60006002820490506001821680620016ae57607f821691505b602082108103620016c457620016c362001666565b5b50919050565b7f4e487b7100000000000000000000000000000000000000000000000000000000600052601160045260246000fd5b60006200170682620013cc565b91506200171383620013cc565b92508282019050808211156200172e576200172d620016ca565b5b92915050565b60006040820190506200174b6000830185620014e8565b6200175a602083018462001488565b9392505050565b7f45524332303a2064656372656173656420616c6c6f77616e63652062656c6f7760008201527f207a65726f000000000000000000000000000000000000000000000000000000602082015250565b6000620017bf602583620012af565b9150620017cc8262001761565b604082019050919050565b60006020820190508181036000830152620017f281620017b0565b9050919050565b7f45524332303a20617070726f76652066726f6d20746865207a65726f2061646460008201527f7265737300000000000000000000000000000000000000000000000000000000602082015250565b600062001857602483620012af565b91506200186482620017f9565b604082019050919050565b600060208201905081810360008301526200188a8162001848565b9050919050565b7f45524332303a20617070726f766520746f20746865207a65726f20616464726560008201527f7373000000000000000000000000000000000000000000000000000000000000602082015250565b6000620018ef602283620012af565b9150620018fc8262001891565b604082019050919050565b600060208201905081810360008301526200192281620018e0565b9050919050565b7f45524332303a20696e73756666696369656e7420616c6c6f77616e6365000000600082015250565b600062001961601d83620012af565b91506200196e8262001929565b602082019050919050565b60006020820190508181036000830152620019948162001952565b9050919050565b7f45524332303a207472616e736665722066726f6d20746865207a65726f20616460008201527f6472657373000000000000000000000000000000000000000000000000000000602082015250565b6000620019f9602583620012af565b915062001a06826200199b565b604082019050919050565b6000602082019050818103600083015262001a2c81620019ea565b9050919050565b7f45524332303a207472616e7366657220746f20746865207a65726f206164647260008201527f6573730000000000000000000000000000000000000000000000000000000000602082015250565b600062001a91602383620012af565b915062001a9e8262001a33565b604082019050919050565b6000602082019050818103600083015262001ac48162001a82565b9050919050565b7f45524332303a207472616e7366657220616d6f756e742065786365656473206260008201527f616c616e63650000000000000000000000000000000000000000000000000000602082015250565b600062001b29602683620012af565b915062001b368262001acb565b604082019050919050565b6000602082019050818103600083015262001b5c8162001b1a565b905091905056fe608060405234801561001057600080fd5b506040516105ee3803806105ee8339818101604052810190610032919061015a565b80600281905550816000806101000a81548173ffffffffffffffffffffffffffffffffffffffff021916908373ffffffffffffffffffffffffffffffffffffffff16021790555033600160006101000a81548173ffffffffffffffffffffffffffffffffffffffff021916908373ffffffffffffffffffffffffffffffffffffffff160217905550505061019a565b600080fd5b600073ffffffffffffffffffffffffffffffffffffffff82169050919050565b60006100f1826100c6565b9050919050565b610101816100e6565b811461010c57600080fd5b50565b60008151905061011e816100f8565b92915050565b6000819050919050565b61013781610124565b811461014257600080fd5b50565b6000815190506101548161012e565b92915050565b60008060408385031215610171576101706100c1565b5b600061017f8582860161010f565b925050602061019085828601610145565b9150509250929050565b610445806101a96000396000f3fe608060405234801561001057600080fd5b50600436106100415760003560e01c806304717a5b14610046578063f45f15f114610064578063f965e32e14610080575b600080fd5b61004e61009c565b60405161005b91906101e9565b60405180910390f35b61007e60048036038101906100799190610293565b6100a2565b005b61009a600480360381019061009591906102d3565b610136565b005b60025481565b3360008054906101000a900473ffffffffffffffffffffffffffffffffffffffff1673ffffffffffffffffffffffffffffffffffffffff168173ffffffffffffffffffffffffffffffffffffffff1614610131576040517f08c379a000000000000000000000000000000000000000000000000000000000815260040161012890610383565b60405180910390fd5b505050565b600160009054906101000a900473ffffffffffffffffffffffffffffffffffffffff1673ffffffffffffffffffffffffffffffffffffffff163373ffffffffffffffffffffffffffffffffffffffff16146101c6576040517f08c379a00000000000000000000000000000000000000000000000000000000081526004016101bd906103ef565b60405180910390fd5b8060028190555050565b6000819050919050565b6101e3816101d0565b82525050565b60006020820190506101fe60008301846101da565b92915050565b600080fd5b600073ffffffffffffffffffffffffffffffffffffffff82169050919050565b600061023482610209565b9050919050565b61024481610229565b811461024f57600080fd5b50565b6000813590506102618161023b565b92915050565b610270816101d0565b811461027b57600080fd5b50565b60008135905061028d81610267565b92915050565b600080604083850312156102aa576102a9610204565b5b60006102b885828601610252565b92505060206102c98582860161027e565b9150509250929050565b6000602082840312156102e9576102e8610204565b5b60006102f78482850161027e565b91505092915050565b600082825260208201905092915050565b7f596f75277265206e6f7420746865206f776e6572206f662074686520636f6e7460008201527f7261637400000000000000000000000000000000000000000000000000000000602082015250565b600061036d602483610300565b915061037882610311565b604082019050919050565b6000602082019050818103600083015261039c81610360565b9050919050565b7f596f75206e65656420746f207573652074686520666163746f72790000000000600082015250565b60006103d9601b83610300565b91506103e4826103a3565b602082019050919050565b60006020820190508181036000830152610408816103cc565b905091905056fea26469706673582212207438e8917c314682f60b50159f18931a17abee93a5fe96cf8a672d5c26ee5f7e64736f6c63430008110033a2646970667358221220335b26093a889c4ddcee1001ab7ed82471848f7c133468bd59e067158c74533c64736f6c63430008110033",
  "linkReferences": {},
  "deployedLinkReferences": {}
}