{
  "_format": "hh-sol-artifact-1",
  "contractName": "Collector",
  "sourceName": "contracts/collector.sol",
  "abi": [
    {
      "inputs": [
        {
          "internalType": "address",
          "name": "owner",
          "type": "address"
        },
        {
          "internalType": "uint256",
          "name": "glass_value",
          "type": "uint256"
        },
        {
          "internalType": "uint256",
          "name": "metal_value",
          "type": "uint256"
        },
        {
          "internalType": "uint256",
          "name": "paper_value",
          "type": "uint256"
        },
        {
          "internalType": "uint256",
          "name": "plastic_value",
          "type": "uint256"
        }
      ],
      "stateMutability": "nonpayable",
      "type": "constructor"
    },
    {
      "inputs": [
        {
          "internalType": "uint256",
          "name": "valeu",
          "type": "uint256"
        }
      ],
      "name": "changeValueGlass",
      "outputs": [],
      "stateMutability": "nonpayable",
      "type": "function"
    },
    {
      "inputs": [
        {
          "internalType": "uint256",
          "name": "valeu",
          "type": "uint256"
        }
      ],
      "name": "changeValueMetal",
      "outputs": [],
      "stateMutability": "nonpayable",
      "type": "function"
    },
    {
      "inputs": [
        {
          "internalType": "uint256",
          "name": "valeu",
          "type": "uint256"
        }
      ],
      "name": "changeValuePaper",
      "outputs": [],
      "stateMutability": "nonpayable",
      "type": "function"
    },
    {
      "inputs": [
        {
          "internalType": "uint256",
          "name": "valeu",
          "type": "uint256"
        }
      ],
      "name": "changeValuePlastic",
      "outputs": [],
      "stateMutability": "nonpayable",
      "type": "function"
    },
    {
      "inputs": [],
      "name": "glass_value_per_gram",
      "outputs": [
        {
          "internalType": "uint256",
          "name": "",
          "type": "uint256"
        }
      ],
      "stateMutability": "view",
      "type": "function"
    },
    {
      "inputs": [],
      "name": "metal_value_per_gram",
      "outputs": [
        {
          "internalType": "uint256",
          "name": "",
          "type": "uint256"
        }
      ],
      "stateMutability": "view",
      "type": "function"
    },
    {
      "inputs": [],
      "name": "paper_value_per_gram",
      "outputs": [
        {
          "internalType": "uint256",
          "name": "",
          "type": "uint256"
        }
      ],
      "stateMutability": "view",
      "type": "function"
    },
    {
      "inputs": [
        {
          "internalType": "address",
          "name": "to",
          "type": "address"
        },
        {
          "internalType": "uint256",
          "name": "grams",
          "type": "uint256"
        }
      ],
      "name": "payToGlass",
      "outputs": [],
      "stateMutability": "nonpayable",
      "type": "function"
    },
    {
      "inputs": [
        {
          "internalType": "address",
          "name": "to",
          "type": "address"
        },
        {
          "internalType": "uint256",
          "name": "grams",
          "type": "uint256"
        }
      ],
      "name": "payToMetal",
      "outputs": [],
      "stateMutability": "nonpayable",
      "type": "function"
    },
    {
      "inputs": [
        {
          "internalType": "address",
          "name": "to",
          "type": "address"
        },
        {
          "internalType": "uint256",
          "name": "grams",
          "type": "uint256"
        }
      ],
      "name": "payToPaper",
      "outputs": [],
      "stateMutability": "nonpayable",
      "type": "function"
    },
    {
      "inputs": [
        {
          "internalType": "address",
          "name": "to",
          "type": "address"
        },
        {
          "internalType": "uint256",
          "name": "grams",
          "type": "uint256"
        }
      ],
      "name": "payToPlastic",
      "outputs": [],
      "stateMutability": "nonpayable",
      "type": "function"
    },
    {
      "inputs": [],
      "name": "plastic_value_per_gram",
      "outputs": [
        {
          "internalType": "uint256",
          "name": "",
          "type": "uint256"
        }
      ],
      "stateMutability": "view",
      "type": "function"
    }
  ],
  "bytecode": "0x60806040523480156200001157600080fd5b5060405162000e1f38038062000e1f833981810160405281019062000037919062000184565b846000806101000a81548173ffffffffffffffffffffffffffffffffffffffff021916908373ffffffffffffffffffffffffffffffffffffffff16021790555033600160006101000a81548173ffffffffffffffffffffffffffffffffffffffff021916908373ffffffffffffffffffffffffffffffffffffffff1602179055508360028190555082600381905550816004819055508060058190555050505050506200020c565b600080fd5b600073ffffffffffffffffffffffffffffffffffffffff82169050919050565b60006200011182620000e4565b9050919050565b620001238162000104565b81146200012f57600080fd5b50565b600081519050620001438162000118565b92915050565b6000819050919050565b6200015e8162000149565b81146200016a57600080fd5b50565b6000815190506200017e8162000153565b92915050565b600080600080600060a08688031215620001a357620001a2620000df565b5b6000620001b38882890162000132565b9550506020620001c6888289016200016d565b9450506040620001d9888289016200016d565b9350506060620001ec888289016200016d565b9250506080620001ff888289016200016d565b9150509295509295909350565b610c03806200021c6000396000f3fe608060405234801561001057600080fd5b50600436106100b45760003560e01c8063810523fe11610071578063810523fe146101635780638404504714610181578063920863a41461019d578063c21fa564146101b9578063c9b4e94e146101d7578063f814fd81146101f3576100b4565b8063145589a6146100b95780632be894ed146100d55780635e4590ee146100f35780636d6ece431461010f5780637b4bdba71461012b5780637cb8e1bb14610147575b600080fd5b6100d360048036038101906100ce919061098c565b610211565b005b6100dd6102ab565b6040516100ea91906109c8565b60405180910390f35b61010d6004803603810190610108919061098c565b6102b1565b005b6101296004803603810190610124919061098c565b61034b565b005b61014560048036038101906101409190610a41565b6103e5565b005b610161600480360381019061015c9190610a41565b610515565b005b61016b610645565b60405161017891906109c8565b60405180910390f35b61019b60048036038101906101969190610a41565b61064b565b005b6101b760048036038101906101b29190610a41565b61077b565b005b6101c16108ab565b6040516101ce91906109c8565b60405180910390f35b6101f160048036038101906101ec919061098c565b6108b1565b005b6101fb61094b565b60405161020891906109c8565b60405180910390f35b3360008054906101000a900473ffffffffffffffffffffffffffffffffffffffff1673ffffffffffffffffffffffffffffffffffffffff168173ffffffffffffffffffffffffffffffffffffffff16146102a0576040517f08c379a000000000000000000000000000000000000000000000000000000000815260040161029790610b04565b60405180910390fd5b816002819055505050565b60045481565b3360008054906101000a900473ffffffffffffffffffffffffffffffffffffffff1673ffffffffffffffffffffffffffffffffffffffff168173ffffffffffffffffffffffffffffffffffffffff1614610340576040517f08c379a000000000000000000000000000000000000000000000000000000000815260040161033790610b04565b60405180910390fd5b816003819055505050565b3360008054906101000a900473ffffffffffffffffffffffffffffffffffffffff1673ffffffffffffffffffffffffffffffffffffffff168173ffffffffffffffffffffffffffffffffffffffff16146103da576040517f08c379a00000000000000000000000000000000000000000000000000000000081526004016103d190610b04565b60405180910390fd5b816004819055505050565b3360008054906101000a900473ffffffffffffffffffffffffffffffffffffffff1673ffffffffffffffffffffffffffffffffffffffff168173ffffffffffffffffffffffffffffffffffffffff1614610474576040517f08c379a000000000000000000000000000000000000000000000000000000000815260040161046b90610b04565b60405180910390fd5b600160009054906101000a900473ffffffffffffffffffffffffffffffffffffffff1673ffffffffffffffffffffffffffffffffffffffff16633805881884600354856104c19190610b53565b6040518363ffffffff1660e01b81526004016104de929190610ba4565b600060405180830381600087803b1580156104f857600080fd5b505af115801561050c573d6000803e3d6000fd5b50505050505050565b3360008054906101000a900473ffffffffffffffffffffffffffffffffffffffff1673ffffffffffffffffffffffffffffffffffffffff168173ffffffffffffffffffffffffffffffffffffffff16146105a4576040517f08c379a000000000000000000000000000000000000000000000000000000000815260040161059b90610b04565b60405180910390fd5b600160009054906101000a900473ffffffffffffffffffffffffffffffffffffffff1673ffffffffffffffffffffffffffffffffffffffff16633805881884600554856105f19190610b53565b6040518363ffffffff1660e01b815260040161060e929190610ba4565b600060405180830381600087803b15801561062857600080fd5b505af115801561063c573d6000803e3d6000fd5b50505050505050565b60025481565b3360008054906101000a900473ffffffffffffffffffffffffffffffffffffffff1673ffffffffffffffffffffffffffffffffffffffff168173ffffffffffffffffffffffffffffffffffffffff16146106da576040517f08c379a00000000000000000000000000000000000000000000000000000000081526004016106d190610b04565b60405180910390fd5b600160009054906101000a900473ffffffffffffffffffffffffffffffffffffffff1673ffffffffffffffffffffffffffffffffffffffff16633805881884600254856107279190610b53565b6040518363ffffffff1660e01b8152600401610744929190610ba4565b600060405180830381600087803b15801561075e57600080fd5b505af1158015610772573d6000803e3d6000fd5b50505050505050565b3360008054906101000a900473ffffffffffffffffffffffffffffffffffffffff1673ffffffffffffffffffffffffffffffffffffffff168173ffffffffffffffffffffffffffffffffffffffff161461080a576040517f08c379a000000000000000000000000000000000000000000000000000000000815260040161080190610b04565b60405180910390fd5b600160009054906101000a900473ffffffffffffffffffffffffffffffffffffffff1673ffffffffffffffffffffffffffffffffffffffff16633805881884600454856108579190610b53565b6040518363ffffffff1660e01b8152600401610874929190610ba4565b600060405180830381600087803b15801561088e57600080fd5b505af11580156108a2573d6000803e3d6000fd5b50505050505050565b60035481565b3360008054906101000a900473ffffffffffffffffffffffffffffffffffffffff1673ffffffffffffffffffffffffffffffffffffffff168173ffffffffffffffffffffffffffffffffffffffff1614610940576040517f08c379a000000000000000000000000000000000000000000000000000000000815260040161093790610b04565b60405180910390fd5b816005819055505050565b60055481565b600080fd5b6000819050919050565b61096981610956565b811461097457600080fd5b50565b60008135905061098681610960565b92915050565b6000602082840312156109a2576109a1610951565b5b60006109b084828501610977565b91505092915050565b6109c281610956565b82525050565b60006020820190506109dd60008301846109b9565b92915050565b600073ffffffffffffffffffffffffffffffffffffffff82169050919050565b6000610a0e826109e3565b9050919050565b610a1e81610a03565b8114610a2957600080fd5b50565b600081359050610a3b81610a15565b92915050565b60008060408385031215610a5857610a57610951565b5b6000610a6685828601610a2c565b9250506020610a7785828601610977565b9150509250929050565b600082825260208201905092915050565b7f596f75277265206e6f7420746865206f776e6572206f662074686520636f6e7460008201527f7261637400000000000000000000000000000000000000000000000000000000602082015250565b6000610aee602483610a81565b9150610af982610a92565b604082019050919050565b60006020820190508181036000830152610b1d81610ae1565b9050919050565b7f4e487b7100000000000000000000000000000000000000000000000000000000600052601160045260246000fd5b6000610b5e82610956565b9150610b6983610956565b9250828202610b7781610956565b91508282048414831517610b8e57610b8d610b24565b5b5092915050565b610b9e81610a03565b82525050565b6000604082019050610bb96000830185610b95565b610bc660208301846109b9565b939250505056fea2646970667358221220fa29919a6bd7725d3b92d97003051e57b26ddb3ff65df204061c4c782bccbfd764736f6c63430008110033",
  "linkReferences": {},
  "deployedLinkReferences": {}
}