{
  "_format": "hh-sol-artifact-1",
  "contractName": "Collector",
  "sourceName": "contracts/collector.sol",
  "abi": [
    {
      "inputs": [
        {
          "internalType": "address",
          "name": "owner",
          "type": "address"
        },
        {
          "internalType": "uint256",
          "name": "glass_value",
          "type": "uint256"
        },
        {
          "internalType": "uint256",
          "name": "metal_value",
          "type": "uint256"
        },
        {
          "internalType": "uint256",
          "name": "paper_value",
          "type": "uint256"
        },
        {
          "internalType": "uint256",
          "name": "plastic_value",
          "type": "uint256"
        }
      ],
      "stateMutability": "nonpayable",
      "type": "constructor"
    },
    {
      "anonymous": false,
      "inputs": [
        {
          "indexed": false,
          "internalType": "string",
          "name": "residue",
          "type": "string"
        },
        {
          "indexed": false,
          "internalType": "uint256",
          "name": "residueAmount",
          "type": "uint256"
        }
      ],
      "name": "fullStorage",
      "type": "event"
    },
    {
      "inputs": [],
      "name": "FULL",
      "outputs": [
        {
          "internalType": "uint256",
          "name": "",
          "type": "uint256"
        }
      ],
      "stateMutability": "view",
      "type": "function"
    },
    {
      "inputs": [],
      "name": "amount_glass",
      "outputs": [
        {
          "internalType": "uint256",
          "name": "",
          "type": "uint256"
        }
      ],
      "stateMutability": "view",
      "type": "function"
    },
    {
      "inputs": [],
      "name": "amount_metal",
      "outputs": [
        {
          "internalType": "uint256",
          "name": "",
          "type": "uint256"
        }
      ],
      "stateMutability": "view",
      "type": "function"
    },
    {
      "inputs": [],
      "name": "amount_papper",
      "outputs": [
        {
          "internalType": "uint256",
          "name": "",
          "type": "uint256"
        }
      ],
      "stateMutability": "view",
      "type": "function"
    },
    {
      "inputs": [],
      "name": "amount_plastic",
      "outputs": [
        {
          "internalType": "uint256",
          "name": "",
          "type": "uint256"
        }
      ],
      "stateMutability": "view",
      "type": "function"
    },
    {
      "inputs": [
        {
          "internalType": "uint256",
          "name": "valeu",
          "type": "uint256"
        }
      ],
      "name": "changeValueGlass",
      "outputs": [],
      "stateMutability": "nonpayable",
      "type": "function"
    },
    {
      "inputs": [
        {
          "internalType": "uint256",
          "name": "valeu",
          "type": "uint256"
        }
      ],
      "name": "changeValueMetal",
      "outputs": [],
      "stateMutability": "nonpayable",
      "type": "function"
    },
    {
      "inputs": [
        {
          "internalType": "uint256",
          "name": "valeu",
          "type": "uint256"
        }
      ],
      "name": "changeValuePaper",
      "outputs": [],
      "stateMutability": "nonpayable",
      "type": "function"
    },
    {
      "inputs": [
        {
          "internalType": "uint256",
          "name": "valeu",
          "type": "uint256"
        }
      ],
      "name": "changeValuePlastic",
      "outputs": [],
      "stateMutability": "nonpayable",
      "type": "function"
    },
    {
      "inputs": [],
      "name": "clearGlassStorage",
      "outputs": [],
      "stateMutability": "nonpayable",
      "type": "function"
    },
    {
      "inputs": [],
      "name": "clearMetalStorage",
      "outputs": [],
      "stateMutability": "nonpayable",
      "type": "function"
    },
    {
      "inputs": [],
      "name": "clearPaperStorage",
      "outputs": [],
      "stateMutability": "nonpayable",
      "type": "function"
    },
    {
      "inputs": [],
      "name": "clearPlasticStorage",
      "outputs": [],
      "stateMutability": "nonpayable",
      "type": "function"
    },
    {
      "inputs": [],
      "name": "glass_value_per_gram",
      "outputs": [
        {
          "internalType": "uint256",
          "name": "",
          "type": "uint256"
        }
      ],
      "stateMutability": "view",
      "type": "function"
    },
    {
      "inputs": [],
      "name": "metal_value_per_gram",
      "outputs": [
        {
          "internalType": "uint256",
          "name": "",
          "type": "uint256"
        }
      ],
      "stateMutability": "view",
      "type": "function"
    },
    {
      "inputs": [],
      "name": "paper_value_per_gram",
      "outputs": [
        {
          "internalType": "uint256",
          "name": "",
          "type": "uint256"
        }
      ],
      "stateMutability": "view",
      "type": "function"
    },
    {
      "inputs": [
        {
          "internalType": "address",
          "name": "to",
          "type": "address"
        },
        {
          "internalType": "uint256",
          "name": "grams",
          "type": "uint256"
        }
      ],
      "name": "payToGlass",
      "outputs": [],
      "stateMutability": "nonpayable",
      "type": "function"
    },
    {
      "inputs": [
        {
          "internalType": "address",
          "name": "to",
          "type": "address"
        },
        {
          "internalType": "uint256",
          "name": "grams",
          "type": "uint256"
        }
      ],
      "name": "payToMetal",
      "outputs": [],
      "stateMutability": "nonpayable",
      "type": "function"
    },
    {
      "inputs": [
        {
          "internalType": "address",
          "name": "to",
          "type": "address"
        },
        {
          "internalType": "uint256",
          "name": "grams",
          "type": "uint256"
        }
      ],
      "name": "payToPaper",
      "outputs": [],
      "stateMutability": "nonpayable",
      "type": "function"
    },
    {
      "inputs": [
        {
          "internalType": "address",
          "name": "to",
          "type": "address"
        },
        {
          "internalType": "uint256",
          "name": "grams",
          "type": "uint256"
        }
      ],
      "name": "payToPlastic",
      "outputs": [],
      "stateMutability": "nonpayable",
      "type": "function"
    },
    {
      "inputs": [],
      "name": "plastic_value_per_gram",
      "outputs": [
        {
          "internalType": "uint256",
          "name": "",
          "type": "uint256"
        }
      ],
      "stateMutability": "view",
      "type": "function"
    }
  ],
  "bytecode": "0x60806040523480156200001157600080fd5b506040516200170e3803806200170e8339818101604052810190620000379190620001a4565b846000806101000a81548173ffffffffffffffffffffffffffffffffffffffff021916908373ffffffffffffffffffffffffffffffffffffffff16021790555033600160006101000a81548173ffffffffffffffffffffffffffffffffffffffff021916908373ffffffffffffffffffffffffffffffffffffffff16021790555083600281905550826003819055508160048190555080600581905550600060068190555060006007819055506000600881905550600060098190555050505050506200022c565b600080fd5b600073ffffffffffffffffffffffffffffffffffffffff82169050919050565b6000620001318262000104565b9050919050565b620001438162000124565b81146200014f57600080fd5b50565b600081519050620001638162000138565b92915050565b6000819050919050565b6200017e8162000169565b81146200018a57600080fd5b50565b6000815190506200019e8162000173565b92915050565b600080600080600060a08688031215620001c357620001c2620000ff565b5b6000620001d38882890162000152565b9550506020620001e6888289016200018d565b9450506040620001f9888289016200018d565b93505060606200020c888289016200018d565b92505060806200021f888289016200018d565b9150509295509295909350565b6114d2806200023c6000396000f3fe608060405234801561001057600080fd5b50600436106101375760003560e01c80637b4bdba7116100b857806395c21fa21161007c57806395c21fa2146102b4578063c21fa564146102d2578063c4a4c711146102f0578063c9b4e94e1461030e578063d71da7f11461032a578063f814fd811461033457610137565b80637b4bdba7146102265780637cb8e1bb14610242578063810523fe1461025e578063840450471461027c578063920863a41461029857610137565b80635ede458b116100ff5780635ede458b146101ba578063632ea00d146101d85780636acd9451146101e25780636d6ece43146102005780636d929af71461021c57610137565b8063145589a61461013c5780632be894ed14610158578063421ce6ab1461017657806356dc795c146101805780635e4590ee1461019e575b600080fd5b61015660048036038101906101519190610fd3565b610352565b005b6101606103ec565b60405161016d919061100f565b60405180910390f35b61017e6103f2565b005b6101886104d3565b604051610195919061100f565b60405180910390f35b6101b860048036038101906101b39190610fd3565b6104d9565b005b6101c2610573565b6040516101cf919061100f565b60405180910390f35b6101e0610579565b005b6101ea61065a565b6040516101f7919061100f565b60405180910390f35b61021a60048036038101906102159190610fd3565b610660565b005b6102246106fa565b005b610240600480360381019061023b9190611088565b6107db565b005b61025c60048036038101906102579190611088565b610964565b005b610266610aed565b604051610273919061100f565b60405180910390f35b61029660048036038101906102919190611088565b610af3565b005b6102b260048036038101906102ad9190611088565b610c7c565b005b6102bc610e05565b6040516102c9919061100f565b60405180910390f35b6102da610e0b565b6040516102e7919061100f565b60405180910390f35b6102f8610e11565b604051610305919061100f565b60405180910390f35b61032860048036038101906103239190610fd3565b610e17565b005b610332610eb1565b005b61033c610f92565b604051610349919061100f565b60405180910390f35b3360008054906101000a900473ffffffffffffffffffffffffffffffffffffffff1673ffffffffffffffffffffffffffffffffffffffff168173ffffffffffffffffffffffffffffffffffffffff16146103e1576040517f08c379a00000000000000000000000000000000000000000000000000000000081526004016103d89061114b565b60405180910390fd5b816002819055505050565b60045481565b3360008054906101000a900473ffffffffffffffffffffffffffffffffffffffff1673ffffffffffffffffffffffffffffffffffffffff168173ffffffffffffffffffffffffffffffffffffffff1614610481576040517f08c379a00000000000000000000000000000000000000000000000000000000081526004016104789061114b565b60405180910390fd5b600754600081116104c7576040517f08c379a00000000000000000000000000000000000000000000000000000000081526004016104be906111b7565b60405180910390fd5b60006007819055505050565b614e2081565b3360008054906101000a900473ffffffffffffffffffffffffffffffffffffffff1673ffffffffffffffffffffffffffffffffffffffff168173ffffffffffffffffffffffffffffffffffffffff1614610568576040517f08c379a000000000000000000000000000000000000000000000000000000000815260040161055f9061114b565b60405180910390fd5b816003819055505050565b60065481565b3360008054906101000a900473ffffffffffffffffffffffffffffffffffffffff1673ffffffffffffffffffffffffffffffffffffffff168173ffffffffffffffffffffffffffffffffffffffff1614610608576040517f08c379a00000000000000000000000000000000000000000000000000000000081526004016105ff9061114b565b60405180910390fd5b6009546000811161064e576040517f08c379a0000000000000000000000000000000000000000000000000000000008152600401610645906111b7565b60405180910390fd5b60006009819055505050565b60095481565b3360008054906101000a900473ffffffffffffffffffffffffffffffffffffffff1673ffffffffffffffffffffffffffffffffffffffff168173ffffffffffffffffffffffffffffffffffffffff16146106ef576040517f08c379a00000000000000000000000000000000000000000000000000000000081526004016106e69061114b565b60405180910390fd5b816004819055505050565b3360008054906101000a900473ffffffffffffffffffffffffffffffffffffffff1673ffffffffffffffffffffffffffffffffffffffff168173ffffffffffffffffffffffffffffffffffffffff1614610789576040517f08c379a00000000000000000000000000000000000000000000000000000000081526004016107809061114b565b60405180910390fd5b600854600081116107cf576040517f08c379a00000000000000000000000000000000000000000000000000000000081526004016107c6906111b7565b60405180910390fd5b60006008819055505050565b3360008054906101000a900473ffffffffffffffffffffffffffffffffffffffff1673ffffffffffffffffffffffffffffffffffffffff168173ffffffffffffffffffffffffffffffffffffffff161461086a576040517f08c379a00000000000000000000000000000000000000000000000000000000081526004016108619061114b565b60405180910390fd5b600160009054906101000a900473ffffffffffffffffffffffffffffffffffffffff1673ffffffffffffffffffffffffffffffffffffffff16633805881884600354856108b79190611206565b6040518363ffffffff1660e01b81526004016108d4929190611257565b600060405180830381600087803b1580156108ee57600080fd5b505af1158015610902573d6000803e3d6000fd5b50505050816007546109149190611280565b600781905550614e206007541061095f577ff488829127a2e8197d353fa383fcb6b5923d9c0eef9eb09051f0f28996a237cb6007546040516109569190611300565b60405180910390a15b505050565b3360008054906101000a900473ffffffffffffffffffffffffffffffffffffffff1673ffffffffffffffffffffffffffffffffffffffff168173ffffffffffffffffffffffffffffffffffffffff16146109f3576040517f08c379a00000000000000000000000000000000000000000000000000000000081526004016109ea9061114b565b60405180910390fd5b600160009054906101000a900473ffffffffffffffffffffffffffffffffffffffff1673ffffffffffffffffffffffffffffffffffffffff1663380588188460055485610a409190611206565b6040518363ffffffff1660e01b8152600401610a5d929190611257565b600060405180830381600087803b158015610a7757600080fd5b505af1158015610a8b573d6000803e3d6000fd5b5050505081600954610a9d9190611280565b600981905550614e2060095410610ae8577ff488829127a2e8197d353fa383fcb6b5923d9c0eef9eb09051f0f28996a237cb600954604051610adf919061137a565b60405180910390a15b505050565b60025481565b3360008054906101000a900473ffffffffffffffffffffffffffffffffffffffff1673ffffffffffffffffffffffffffffffffffffffff168173ffffffffffffffffffffffffffffffffffffffff1614610b82576040517f08c379a0000000000000000000000000000000000000000000000000000000008152600401610b799061114b565b60405180910390fd5b600160009054906101000a900473ffffffffffffffffffffffffffffffffffffffff1673ffffffffffffffffffffffffffffffffffffffff1663380588188460025485610bcf9190611206565b6040518363ffffffff1660e01b8152600401610bec929190611257565b600060405180830381600087803b158015610c0657600080fd5b505af1158015610c1a573d6000803e3d6000fd5b5050505081600654610c2c9190611280565b600681905550614e2060065410610c77577ff488829127a2e8197d353fa383fcb6b5923d9c0eef9eb09051f0f28996a237cb600654604051610c6e91906113f4565b60405180910390a15b505050565b3360008054906101000a900473ffffffffffffffffffffffffffffffffffffffff1673ffffffffffffffffffffffffffffffffffffffff168173ffffffffffffffffffffffffffffffffffffffff1614610d0b576040517f08c379a0000000000000000000000000000000000000000000000000000000008152600401610d029061114b565b60405180910390fd5b600160009054906101000a900473ffffffffffffffffffffffffffffffffffffffff1673ffffffffffffffffffffffffffffffffffffffff1663380588188460045485610d589190611206565b6040518363ffffffff1660e01b8152600401610d75929190611257565b600060405180830381600087803b158015610d8f57600080fd5b505af1158015610da3573d6000803e3d6000fd5b5050505081600854610db59190611280565b600881905550614e2060085410610e00577ff488829127a2e8197d353fa383fcb6b5923d9c0eef9eb09051f0f28996a237cb600854604051610df7919061146e565b60405180910390a15b505050565b60085481565b60035481565b60075481565b3360008054906101000a900473ffffffffffffffffffffffffffffffffffffffff1673ffffffffffffffffffffffffffffffffffffffff168173ffffffffffffffffffffffffffffffffffffffff1614610ea6576040517f08c379a0000000000000000000000000000000000000000000000000000000008152600401610e9d9061114b565b60405180910390fd5b816005819055505050565b3360008054906101000a900473ffffffffffffffffffffffffffffffffffffffff1673ffffffffffffffffffffffffffffffffffffffff168173ffffffffffffffffffffffffffffffffffffffff1614610f40576040517f08c379a0000000000000000000000000000000000000000000000000000000008152600401610f379061114b565b60405180910390fd5b60065460008111610f86576040517f08c379a0000000000000000000000000000000000000000000000000000000008152600401610f7d906111b7565b60405180910390fd5b60006006819055505050565b60055481565b600080fd5b6000819050919050565b610fb081610f9d565b8114610fbb57600080fd5b50565b600081359050610fcd81610fa7565b92915050565b600060208284031215610fe957610fe8610f98565b5b6000610ff784828501610fbe565b91505092915050565b61100981610f9d565b82525050565b60006020820190506110246000830184611000565b92915050565b600073ffffffffffffffffffffffffffffffffffffffff82169050919050565b60006110558261102a565b9050919050565b6110658161104a565b811461107057600080fd5b50565b6000813590506110828161105c565b92915050565b6000806040838503121561109f5761109e610f98565b5b60006110ad85828601611073565b92505060206110be85828601610fbe565b9150509250929050565b600082825260208201905092915050565b7f596f75277265206e6f7420746865206f776e6572206f662074686520636f6e7460008201527f7261637400000000000000000000000000000000000000000000000000000000602082015250565b60006111356024836110c8565b9150611140826110d9565b604082019050919050565b6000602082019050818103600083015261116481611128565b9050919050565b7f53746f7261676520697320656d7074792e000000000000000000000000000000600082015250565b60006111a16011836110c8565b91506111ac8261116b565b602082019050919050565b600060208201905081810360008301526111d081611194565b9050919050565b7f4e487b7100000000000000000000000000000000000000000000000000000000600052601160045260246000fd5b600061121182610f9d565b915061121c83610f9d565b925082820261122a81610f9d565b91508282048414831517611241576112406111d7565b5b5092915050565b6112518161104a565b82525050565b600060408201905061126c6000830185611248565b6112796020830184611000565b9392505050565b600061128b82610f9d565b915061129683610f9d565b92508282019050808211156112ae576112ad6111d7565b5b92915050565b7f6d6574616c000000000000000000000000000000000000000000000000000000600082015250565b60006112ea6005836110c8565b91506112f5826112b4565b602082019050919050565b60006040820190508181036000830152611319816112dd565b90506113286020830184611000565b92915050565b7f706c617374696300000000000000000000000000000000000000000000000000600082015250565b60006113646007836110c8565b915061136f8261132e565b602082019050919050565b6000604082019050818103600083015261139381611357565b90506113a26020830184611000565b92915050565b7f676c617373000000000000000000000000000000000000000000000000000000600082015250565b60006113de6005836110c8565b91506113e9826113a8565b602082019050919050565b6000604082019050818103600083015261140d816113d1565b905061141c6020830184611000565b92915050565b7f7061706572000000000000000000000000000000000000000000000000000000600082015250565b60006114586005836110c8565b915061146382611422565b602082019050919050565b600060408201905081810360008301526114878161144b565b90506114966020830184611000565b9291505056fea2646970667358221220d6cf3402920fcd2023d3a960d293e0d6df97d6c425ca72ded5dbb1de495b91ed64736f6c63430008110033",
  "linkReferences": {},
  "deployedLinkReferences": {}
}