{
  "_format": "hh-sol-artifact-1",
  "contractName": "Residues",
  "sourceName": "contracts/residues.sol",
  "abi": [
    {
      "inputs": [
        {
          "internalType": "address",
          "name": "owner",
          "type": "address"
        },
        {
          "internalType": "uint256",
          "name": "value",
          "type": "uint256"
        }
      ],
      "stateMutability": "nonpayable",
      "type": "constructor"
    },
    {
      "inputs": [
        {
          "internalType": "uint256",
          "name": "valeu",
          "type": "uint256"
        }
      ],
      "name": "changeValue",
      "outputs": [],
      "stateMutability": "nonpayable",
      "type": "function"
    },
    {
      "inputs": [
        {
          "internalType": "address",
          "name": "to",
          "type": "address"
        },
        {
          "internalType": "uint256",
          "name": "grams",
          "type": "uint256"
        }
      ],
      "name": "payToResidue",
      "outputs": [],
      "stateMutability": "nonpayable",
      "type": "function"
    },
    {
      "inputs": [],
      "name": "value_per_gram",
      "outputs": [
        {
          "internalType": "uint256",
          "name": "",
          "type": "uint256"
        }
      ],
      "stateMutability": "view",
      "type": "function"
    }
  ],
  "bytecode": "0x608060405234801561001057600080fd5b506040516105ee3803806105ee8339818101604052810190610032919061015a565b80600281905550816000806101000a81548173ffffffffffffffffffffffffffffffffffffffff021916908373ffffffffffffffffffffffffffffffffffffffff16021790555033600160006101000a81548173ffffffffffffffffffffffffffffffffffffffff021916908373ffffffffffffffffffffffffffffffffffffffff160217905550505061019a565b600080fd5b600073ffffffffffffffffffffffffffffffffffffffff82169050919050565b60006100f1826100c6565b9050919050565b610101816100e6565b811461010c57600080fd5b50565b60008151905061011e816100f8565b92915050565b6000819050919050565b61013781610124565b811461014257600080fd5b50565b6000815190506101548161012e565b92915050565b60008060408385031215610171576101706100c1565b5b600061017f8582860161010f565b925050602061019085828601610145565b9150509250929050565b610445806101a96000396000f3fe608060405234801561001057600080fd5b50600436106100415760003560e01c806304717a5b14610046578063f45f15f114610064578063f965e32e14610080575b600080fd5b61004e61009c565b60405161005b91906101e9565b60405180910390f35b61007e60048036038101906100799190610293565b6100a2565b005b61009a600480360381019061009591906102d3565b610136565b005b60025481565b3360008054906101000a900473ffffffffffffffffffffffffffffffffffffffff1673ffffffffffffffffffffffffffffffffffffffff168173ffffffffffffffffffffffffffffffffffffffff1614610131576040517f08c379a000000000000000000000000000000000000000000000000000000000815260040161012890610383565b60405180910390fd5b505050565b600160009054906101000a900473ffffffffffffffffffffffffffffffffffffffff1673ffffffffffffffffffffffffffffffffffffffff163373ffffffffffffffffffffffffffffffffffffffff16146101c6576040517f08c379a00000000000000000000000000000000000000000000000000000000081526004016101bd906103ef565b60405180910390fd5b8060028190555050565b6000819050919050565b6101e3816101d0565b82525050565b60006020820190506101fe60008301846101da565b92915050565b600080fd5b600073ffffffffffffffffffffffffffffffffffffffff82169050919050565b600061023482610209565b9050919050565b61024481610229565b811461024f57600080fd5b50565b6000813590506102618161023b565b92915050565b610270816101d0565b811461027b57600080fd5b50565b60008135905061028d81610267565b92915050565b600080604083850312156102aa576102a9610204565b5b60006102b885828601610252565b92505060206102c98582860161027e565b9150509250929050565b6000602082840312156102e9576102e8610204565b5b60006102f78482850161027e565b91505092915050565b600082825260208201905092915050565b7f596f75277265206e6f7420746865206f776e6572206f662074686520636f6e7460008201527f7261637400000000000000000000000000000000000000000000000000000000602082015250565b600061036d602483610300565b915061037882610311565b604082019050919050565b6000602082019050818103600083015261039c81610360565b9050919050565b7f596f75206e65656420746f207573652074686520666163746f72790000000000600082015250565b60006103d9601b83610300565b91506103e4826103a3565b602082019050919050565b60006020820190508181036000830152610408816103cc565b905091905056fea26469706673582212207438e8917c314682f60b50159f18931a17abee93a5fe96cf8a672d5c26ee5f7e64736f6c63430008110033",
  "linkReferences": {},
  "deployedLinkReferences": {}
}